{
  "_format": "hh-sol-artifact-1",
  "contractName": "Voting",
  "sourceName": "contracts/Voting.sol",
  "abi": [
    {
      "inputs": [
        {
          "internalType": "contract IERC20",
          "name": "_wknd",
          "type": "address"
        }
      ],
      "stateMutability": "nonpayable",
      "type": "constructor"
    },
    {
      "anonymous": false,
      "inputs": [
        {
          "indexed": false,
          "internalType": "uint8",
          "name": "candidate",
          "type": "uint8"
        }
      ],
      "name": "NewChallanger",
      "type": "event"
    },
    {
      "anonymous": false,
      "inputs": [
        {
          "indexed": true,
          "internalType": "address",
          "name": "previousOwner",
          "type": "address"
        },
        {
          "indexed": true,
          "internalType": "address",
          "name": "newOwner",
          "type": "address"
        }
      ],
      "name": "OwnershipTransferred",
      "type": "event"
    },
    {
      "anonymous": false,
      "inputs": [
        {
          "indexed": false,
          "internalType": "address",
          "name": "voter",
          "type": "address"
        },
        {
          "indexed": false,
          "internalType": "uint8",
          "name": "candidate",
          "type": "uint8"
        },
        {
          "indexed": false,
          "internalType": "uint256",
          "name": "value",
          "type": "uint256"
        }
      ],
      "name": "Voted",
      "type": "event"
    },
    {
      "anonymous": false,
      "inputs": [
        {
          "indexed": false,
          "internalType": "address",
          "name": "voter",
          "type": "address"
        }
      ],
      "name": "VoterRegistered",
      "type": "event"
    },
    {
      "inputs": [],
      "name": "candidateVotes",
      "outputs": [
        {
          "internalType": "uint256[10]",
          "name": "",
          "type": "uint256[10]"
        }
      ],
      "stateMutability": "view",
      "type": "function"
    },
    {
      "inputs": [],
      "name": "owner",
      "outputs": [
        {
          "internalType": "address",
          "name": "",
          "type": "address"
        }
      ],
      "stateMutability": "view",
      "type": "function"
    },
    {
      "inputs": [
        {
          "internalType": "address",
          "name": "voter",
          "type": "address"
        }
      ],
      "name": "register",
      "outputs": [
        {
          "internalType": "bool",
          "name": "",
          "type": "bool"
        }
      ],
      "stateMutability": "nonpayable",
      "type": "function"
    },
    {
      "inputs": [],
      "name": "renounceOwnership",
      "outputs": [],
      "stateMutability": "nonpayable",
      "type": "function"
    },
    {
      "inputs": [
        {
          "internalType": "bool",
          "name": "status",
          "type": "bool"
        }
      ],
      "name": "setVotingStatus",
      "outputs": [
        {
          "internalType": "bool",
          "name": "",
          "type": "bool"
        }
      ],
      "stateMutability": "nonpayable",
      "type": "function"
    },
    {
      "inputs": [
        {
          "internalType": "uint256",
          "name": "",
          "type": "uint256"
        }
      ],
      "name": "topCandidates",
      "outputs": [
        {
          "internalType": "uint8",
          "name": "",
          "type": "uint8"
        }
      ],
      "stateMutability": "view",
      "type": "function"
    },
    {
      "inputs": [
        {
          "internalType": "address",
          "name": "newOwner",
          "type": "address"
        }
      ],
      "name": "transferOwnership",
      "outputs": [],
      "stateMutability": "nonpayable",
      "type": "function"
    },
    {
      "inputs": [
        {
          "internalType": "address",
          "name": "voter",
          "type": "address"
        },
        {
          "internalType": "uint8",
          "name": "candidate",
          "type": "uint8"
        },
        {
          "internalType": "uint256",
          "name": "value",
          "type": "uint256"
        }
      ],
      "name": "vote",
      "outputs": [
        {
          "internalType": "bool",
          "name": "",
          "type": "bool"
        }
      ],
      "stateMutability": "nonpayable",
      "type": "function"
    },
    {
      "inputs": [
        {
          "internalType": "address",
          "name": "",
          "type": "address"
        }
      ],
      "name": "voted",
      "outputs": [
        {
          "internalType": "bool",
          "name": "",
          "type": "bool"
        }
      ],
      "stateMutability": "view",
      "type": "function"
    },
    {
      "inputs": [
        {
          "internalType": "address",
          "name": "",
          "type": "address"
        }
      ],
      "name": "voters",
      "outputs": [
        {
          "internalType": "bool",
          "name": "",
          "type": "bool"
        }
      ],
      "stateMutability": "view",
      "type": "function"
    },
    {
      "inputs": [
        {
          "internalType": "uint256",
          "name": "",
          "type": "uint256"
        }
      ],
      "name": "votes",
      "outputs": [
        {
          "internalType": "uint256",
          "name": "",
          "type": "uint256"
        }
      ],
      "stateMutability": "view",
      "type": "function"
    },
    {
      "inputs": [],
      "name": "votingStatus",
      "outputs": [
        {
          "internalType": "bool",
          "name": "",
          "type": "bool"
        }
      ],
      "stateMutability": "view",
      "type": "function"
    },
    {
      "inputs": [],
      "name": "winningCandidates",
      "outputs": [
        {
          "internalType": "uint8[3]",
          "name": "",
          "type": "uint8[3]"
        }
      ],
      "stateMutability": "view",
      "type": "function"
    },
    {
      "inputs": [],
      "name": "wknd",
      "outputs": [
        {
          "internalType": "contract IERC20",
          "name": "",
          "type": "address"
        }
      ],
      "stateMutability": "view",
      "type": "function"
    }
  ],
  "bytecode": "0x60806040523480156200001157600080fd5b506040516200208a3803806200208a8339818101604052810190620000379190620001e9565b620000576200004b6200009f60201b60201c565b620000a760201b60201c565b80600f60006101000a81548173ffffffffffffffffffffffffffffffffffffffff021916908373ffffffffffffffffffffffffffffffffffffffff160217905550506200021b565b600033905090565b60008060009054906101000a900473ffffffffffffffffffffffffffffffffffffffff169050816000806101000a81548173ffffffffffffffffffffffffffffffffffffffff021916908373ffffffffffffffffffffffffffffffffffffffff1602179055508173ffffffffffffffffffffffffffffffffffffffff168173ffffffffffffffffffffffffffffffffffffffff167f8be0079c531659141344cd1fd0a4f28419497f9722a3daafe3b4186f6b6457e060405160405180910390a35050565b600080fd5b600073ffffffffffffffffffffffffffffffffffffffff82169050919050565b60006200019d8262000170565b9050919050565b6000620001b18262000190565b9050919050565b620001c381620001a4565b8114620001cf57600080fd5b50565b600081519050620001e381620001b8565b92915050565b6000602082840312156200020257620002016200016b565b5b60006200021284828501620001d2565b91505092915050565b611e5f806200022b6000396000f3fe608060405234801561001057600080fd5b50600436106100ea5760003560e01c8063715018a61161008c5780638da5cb5b116100665780638da5cb5b14610261578063a3ec138d1461027f578063aec2ccae146102af578063f2fde38b146102df576100ea565b8063715018a6146102095780637478c9fe1461021357806383d7558a14610243576100ea565b8063317b6628116100c8578063317b66281461015b578063377968d41461018b5780634420e486146101a95780635df81330146101d9576100ea565b806312f083b5146100ef57806319f41a401461010d5780631e00eb7f1461012b575b600080fd5b6100f76102fb565b6040516101049190611363565b60405180910390f35b610115610321565b6040516101229190611399565b60405180910390f35b61014560048036038101906101409190611466565b610334565b6040516101529190611399565b60405180910390f35b610175600480360381019061017091906114b9565b61081e565b60405161018291906114f5565b60405180910390f35b610193610848565b6040516101a091906115bb565b60405180910390f35b6101c360048036038101906101be91906115d6565b6108b9565b6040516101d09190611399565b60405180910390f35b6101f360048036038101906101ee91906114b9565b610a8a565b6040516102009190611612565b60405180910390f35b610211610aa5565b005b61022d60048036038101906102289190611659565b610ab9565b60405161023a9190611399565b60405180910390f35b61024b610ae6565b6040516102589190611731565b60405180910390f35b610269610b5f565b604051610276919061175c565b60405180910390f35b610299600480360381019061029491906115d6565b610b88565b6040516102a69190611399565b60405180910390f35b6102c960048036038101906102c491906115d6565b610ba8565b6040516102d69190611399565b60405180910390f35b6102f960048036038101906102f491906115d6565b610bc8565b005b600f60009054906101000a900473ffffffffffffffffffffffffffffffffffffffff1681565b600f60149054906101000a900460ff1681565b6000600f60149054906101000a900460ff16610385576040517f08c379a000000000000000000000000000000000000000000000000000000000815260040161037c906117d4565b60405180910390fd5b61038d610c4b565b83600c60008273ffffffffffffffffffffffffffffffffffffffff1673ffffffffffffffffffffffffffffffffffffffff16815260200190815260200160002060009054906101000a900460ff1661041a576040517f08c379a000000000000000000000000000000000000000000000000000000000815260040161041190611840565b60405180910390fd5b83600c8160ff16108015610431575060008160ff16115b610470576040517f08c379a0000000000000000000000000000000000000000000000000000000008152600401610467906118ac565b60405180910390fd5b600084116104b3576040517f08c379a00000000000000000000000000000000000000000000000000000000081526004016104aa90611918565b60405180910390fd5b600d60008773ffffffffffffffffffffffffffffffffffffffff1673ffffffffffffffffffffffffffffffffffffffff16815260200190815260200160002060009054906101000a900460ff1615610540576040517f08c379a000000000000000000000000000000000000000000000000000000000815260040161053790611984565b60405180910390fd5b6000600f60009054906101000a900473ffffffffffffffffffffffffffffffffffffffff1673ffffffffffffffffffffffffffffffffffffffff1663dd62ed3e88306040518363ffffffff1660e01b815260040161059f9291906119a4565b602060405180830381865afa1580156105bc573d6000803e3d6000fd5b505050506040513d601f19601f820116820180604052508101906105e091906119e2565b905084811015610625576040517f08c379a000000000000000000000000000000000000000000000000000000000815260040161061c90611a5b565b60405180910390fd5b600061063087610cc9565b9050600f60009054906101000a900473ffffffffffffffffffffffffffffffffffffffff1673ffffffffffffffffffffffffffffffffffffffff166323b872dd8930896040518463ffffffff1660e01b815260040161069193929190611a7b565b6020604051808303816000875af11580156106b0573d6000803e3d6000fd5b505050506040513d601f19601f820116820180604052508101906106d49190611ac7565b508560018860ff16600b81106106ed576106ec611af4565b5b0160008282546106fd9190611b52565b925050819055506001600d60008a73ffffffffffffffffffffffffffffffffffffffff1673ffffffffffffffffffffffffffffffffffffffff16815260200190815260200160002060006101000a81548160ff0219169083151502179055507f78d96294d2cf18d8e22a8ad08170a97b7b0fbb5679ae831255aed8508c124ac988888860405161078f93929190611ba8565b60405180910390a16107b98760018960ff16600b81106107b2576107b1611af4565b5b0154610d38565b60006107c488610cc9565b9050811580156107d15750805b1561080e577f9977920664847e18e55e52723e43c9c52eec028b5fa912e4eef38798fe7b19698860405161080591906114f5565b60405180910390a15b6001955050505050509392505050565b600e816003811061082e57600080fd5b60209182820401919006915054906101000a900460ff1681565b6108506111e8565b600e6003806020026040519081016040528092919082600380156108af576020028201916000905b82829054906101000a900460ff1660ff16815260200190600101906020826000010492830192600103820291508084116108785790505b5050505050905090565b60006108c3610c4b565b600c60008373ffffffffffffffffffffffffffffffffffffffff1673ffffffffffffffffffffffffffffffffffffffff16815260200190815260200160002060009054906101000a900460ff1615610950576040517f08c379a000000000000000000000000000000000000000000000000000000000815260040161094790611c2b565b60405180910390fd5b6001600c60008473ffffffffffffffffffffffffffffffffffffffff1673ffffffffffffffffffffffffffffffffffffffff16815260200190815260200160002060006101000a81548160ff021916908315150217905550600f60009054906101000a900473ffffffffffffffffffffffffffffffffffffffff1673ffffffffffffffffffffffffffffffffffffffff1663a9059cbb8360016040518363ffffffff1660e01b8152600401610a06929190611c86565b6020604051808303816000875af1158015610a25573d6000803e3d6000fd5b505050506040513d601f19601f82011682018060405250810190610a499190611ac7565b507fb6be2187d059cc2a55fe29e0e503b566e1e0f8c8780096e185429350acffd3dd82604051610a79919061175c565b60405180910390a160019050919050565b600181600b8110610a9a57600080fd5b016000915090505481565b610aad610c4b565b610ab7600061111c565b565b6000610ac3610c4b565b81600f60146101000a81548160ff02191690831515021790555060019050919050565b610aee61120a565b610af661120a565b6000600190505b600b811015610b5757600181600b8110610b1a57610b19611af4565b5b015482600183610b2a9190611caf565b600a8110610b3b57610b3a611af4565b5b6020020181815250508080610b4f90611ce3565b915050610afd565b508091505090565b60008060009054906101000a900473ffffffffffffffffffffffffffffffffffffffff16905090565b600c6020528060005260406000206000915054906101000a900460ff1681565b600d6020528060005260406000206000915054906101000a900460ff1681565b610bd0610c4b565b600073ffffffffffffffffffffffffffffffffffffffff168173ffffffffffffffffffffffffffffffffffffffff1603610c3f576040517f08c379a0000000000000000000000000000000000000000000000000000000008152600401610c3690611d9d565b60405180910390fd5b610c488161111c565b50565b610c536111e0565b73ffffffffffffffffffffffffffffffffffffffff16610c71610b5f565b73ffffffffffffffffffffffffffffffffffffffff1614610cc7576040517f08c379a0000000000000000000000000000000000000000000000000000000008152600401610cbe90611e09565b60405180910390fd5b565b600080600090505b6003811015610d2d578260ff16600e8260038110610cf257610cf1611af4565b5b602091828204019190069054906101000a900460ff1660ff1603610d1a576001915050610d33565b8080610d2590611ce3565b915050610cd1565b50600090505b919050565b6000600e600380602002604051908101604052809291908260038015610d99576020028201916000905b82829054906101000a900460ff1660ff1681526020019060010190602082600001049283019260010382029150808411610d625790505b50505050509050600181600060038110610db657610db5611af4565b5b602002015160ff16600b8110610dcf57610dce611af4565b5b0154821115610f2f5780600060038110610dec57610deb611af4565b5b602002015160ff168360ff1603610e035750611118565b80600160038110610e1757610e16611af4565b5b602002015160ff168360ff1603610e8d5780600060038110610e3c57610e3b611af4565b5b60200201518382600160038110610e5657610e55611af4565b5b6020020183600060038110610e6e57610e6d611af4565b5b602002018260ff1660ff168152508260ff1660ff168152505050610f2a565b80600160038110610ea157610ea0611af4565b5b602002015181600060038110610eba57610eb9611af4565b5b60200201518483600260038110610ed457610ed3611af4565b5b6020020184600160038110610eec57610eeb611af4565b5b6020020185600060038110610f0457610f03611af4565b5b602002018360ff1660ff168152508360ff1660ff168152508360ff1660ff168152505050505b611104565b600181600160038110610f4557610f44611af4565b5b602002015160ff16600b8110610f5e57610f5d611af4565b5b01548211156110225780600060038110610f7b57610f7a611af4565b5b602002015160ff168360ff1603610f925750611118565b80600160038110610fa657610fa5611af4565b5b602002015160ff168360ff1603610fbd5750611118565b80600160038110610fd157610fd0611af4565b5b60200201518382600260038110610feb57610fea611af4565b5b602002018360016003811061100357611002611af4565b5b602002018260ff1660ff168152508260ff1660ff168152505050611103565b60018160026003811061103857611037611af4565b5b602002015160ff16600b811061105157611050611af4565b5b0154821115611102578060006003811061106e5761106d611af4565b5b602002015160ff168360ff16036110855750611118565b8060016003811061109957611098611af4565b5b602002015160ff168360ff16036110b05750611118565b806002600381106110c4576110c3611af4565b5b602002015160ff168360ff16036110db5750611118565b82816002600381106110f0576110ef611af4565b5b602002019060ff16908160ff16815250505b5b5b80600e90600361111592919061122d565b50505b5050565b60008060009054906101000a900473ffffffffffffffffffffffffffffffffffffffff169050816000806101000a81548173ffffffffffffffffffffffffffffffffffffffff021916908373ffffffffffffffffffffffffffffffffffffffff1602179055508173ffffffffffffffffffffffffffffffffffffffff168173ffffffffffffffffffffffffffffffffffffffff167f8be0079c531659141344cd1fd0a4f28419497f9722a3daafe3b4186f6b6457e060405160405180910390a35050565b600033905090565b6040518060600160405280600390602082028036833780820191505090505090565b604051806101400160405280600a90602082028036833780820191505090505090565b826003601f016020900481019282156112b65791602002820160005b8382111561128757835183826101000a81548160ff021916908360ff1602179055509260200192600101602081600001049283019260010302611249565b80156112b45782816101000a81549060ff0219169055600101602081600001049283019260010302611287565b505b5090506112c391906112c7565b5090565b5b808211156112e05760008160009055506001016112c8565b5090565b600073ffffffffffffffffffffffffffffffffffffffff82169050919050565b6000819050919050565b600061132961132461131f846112e4565b611304565b6112e4565b9050919050565b600061133b8261130e565b9050919050565b600061134d82611330565b9050919050565b61135d81611342565b82525050565b60006020820190506113786000830184611354565b92915050565b60008115159050919050565b6113938161137e565b82525050565b60006020820190506113ae600083018461138a565b92915050565b600080fd5b60006113c4826112e4565b9050919050565b6113d4816113b9565b81146113df57600080fd5b50565b6000813590506113f1816113cb565b92915050565b600060ff82169050919050565b61140d816113f7565b811461141857600080fd5b50565b60008135905061142a81611404565b92915050565b6000819050919050565b61144381611430565b811461144e57600080fd5b50565b6000813590506114608161143a565b92915050565b60008060006060848603121561147f5761147e6113b4565b5b600061148d868287016113e2565b935050602061149e8682870161141b565b92505060406114af86828701611451565b9150509250925092565b6000602082840312156114cf576114ce6113b4565b5b60006114dd84828501611451565b91505092915050565b6114ef816113f7565b82525050565b600060208201905061150a60008301846114e6565b92915050565b600060039050919050565b600081905092915050565b6000819050919050565b611539816113f7565b82525050565b600061154b8383611530565b60208301905092915050565b6000602082019050919050565b61156d81611510565b611577818461151b565b925061158282611526565b8060005b838110156115b357815161159a878261153f565b96506115a583611557565b925050600181019050611586565b505050505050565b60006060820190506115d06000830184611564565b92915050565b6000602082840312156115ec576115eb6113b4565b5b60006115fa848285016113e2565b91505092915050565b61160c81611430565b82525050565b60006020820190506116276000830184611603565b92915050565b6116368161137e565b811461164157600080fd5b50565b6000813590506116538161162d565b92915050565b60006020828403121561166f5761166e6113b4565b5b600061167d84828501611644565b91505092915050565b6000600a9050919050565b600081905092915050565b6000819050919050565b6116af81611430565b82525050565b60006116c183836116a6565b60208301905092915050565b6000602082019050919050565b6116e381611686565b6116ed8184611691565b92506116f88261169c565b8060005b8381101561172957815161171087826116b5565b965061171b836116cd565b9250506001810190506116fc565b505050505050565b60006101408201905061174760008301846116da565b92915050565b611756816113b9565b82525050565b6000602082019050611771600083018461174d565b92915050565b600082825260208201905092915050565b7f566f74696e672070617573656400000000000000000000000000000000000000600082015250565b60006117be600d83611777565b91506117c982611788565b602082019050919050565b600060208201905081810360008301526117ed816117b1565b9050919050565b7f566f746572206e6f742072656769737465726564000000000000000000000000600082015250565b600061182a601483611777565b9150611835826117f4565b602082019050919050565b600060208201905081810360008301526118598161181d565b9050919050565b7f496e76616c69642063616e646964617465000000000000000000000000000000600082015250565b6000611896601183611777565b91506118a182611860565b602082019050919050565b600060208201905081810360008301526118c581611889565b9050919050565b7f3020574b4e4420746f6b656e732070726f766964656400000000000000000000600082015250565b6000611902601683611777565b915061190d826118cc565b602082019050919050565b60006020820190508181036000830152611931816118f5565b9050919050565b7f416c726561647920766f74656400000000000000000000000000000000000000600082015250565b600061196e600d83611777565b915061197982611938565b602082019050919050565b6000602082019050818103600083015261199d81611961565b9050919050565b60006040820190506119b9600083018561174d565b6119c6602083018461174d565b9392505050565b6000815190506119dc8161143a565b92915050565b6000602082840312156119f8576119f76113b4565b5b6000611a06848285016119cd565b91505092915050565b7f496e73756666696369656e7420746f6b656e7320666f7220766f74696e670000600082015250565b6000611a45601e83611777565b9150611a5082611a0f565b602082019050919050565b60006020820190508181036000830152611a7481611a38565b9050919050565b6000606082019050611a90600083018661174d565b611a9d602083018561174d565b611aaa6040830184611603565b949350505050565b600081519050611ac18161162d565b92915050565b600060208284031215611add57611adc6113b4565b5b6000611aeb84828501611ab2565b91505092915050565b7f4e487b7100000000000000000000000000000000000000000000000000000000600052603260045260246000fd5b7f4e487b7100000000000000000000000000000000000000000000000000000000600052601160045260246000fd5b6000611b5d82611430565b9150611b6883611430565b9250827fffffffffffffffffffffffffffffffffffffffffffffffffffffffffffffffff03821115611b9d57611b9c611b23565b5b828201905092915050565b6000606082019050611bbd600083018661174d565b611bca60208301856114e6565b611bd76040830184611603565b949350505050565b7f416c726561647920726567697374657265640000000000000000000000000000600082015250565b6000611c15601283611777565b9150611c2082611bdf565b602082019050919050565b60006020820190508181036000830152611c4481611c08565b9050919050565b6000819050919050565b6000611c70611c6b611c6684611c4b565b611304565b611430565b9050919050565b611c8081611c55565b82525050565b6000604082019050611c9b600083018561174d565b611ca86020830184611c77565b9392505050565b6000611cba82611430565b9150611cc583611430565b925082821015611cd857611cd7611b23565b5b828203905092915050565b6000611cee82611430565b91507fffffffffffffffffffffffffffffffffffffffffffffffffffffffffffffffff8203611d2057611d1f611b23565b5b600182019050919050565b7f4f776e61626c653a206e6577206f776e657220697320746865207a65726f206160008201527f6464726573730000000000000000000000000000000000000000000000000000602082015250565b6000611d87602683611777565b9150611d9282611d2b565b604082019050919050565b60006020820190508181036000830152611db681611d7a565b9050919050565b7f4f776e61626c653a2063616c6c6572206973206e6f7420746865206f776e6572600082015250565b6000611df3602083611777565b9150611dfe82611dbd565b602082019050919050565b60006020820190508181036000830152611e2281611de6565b905091905056fea2646970667358221220e15fb566160f138fd949d7656447b30bf1118220f8ba8710a25bf56658d2794164736f6c634300080f0033",
  "linkReferences": {},
  "deployedLinkReferences": {}
}