{
  "_format": "hh-sol-artifact-1",
  "contractName": "Voting",
  "sourceName": "contracts/Voting.sol",
  "abi": [
    {
      "inputs": [
        {
          "internalType": "contract IERC20",
          "name": "_wknd",
          "type": "address"
        }
      ],
      "stateMutability": "nonpayable",
      "type": "constructor"
    },
    {
      "anonymous": false,
      "inputs": [
        {
          "indexed": false,
          "internalType": "uint8",
          "name": "candidate",
          "type": "uint8"
        }
      ],
      "name": "NewChallanger",
      "type": "event"
    },
    {
      "anonymous": false,
      "inputs": [
        {
          "indexed": true,
          "internalType": "address",
          "name": "previousOwner",
          "type": "address"
        },
        {
          "indexed": true,
          "internalType": "address",
          "name": "newOwner",
          "type": "address"
        }
      ],
      "name": "OwnershipTransferred",
      "type": "event"
    },
    {
      "anonymous": false,
      "inputs": [
        {
          "indexed": false,
          "internalType": "address",
          "name": "voter",
          "type": "address"
        },
        {
          "indexed": false,
          "internalType": "uint8",
          "name": "candidate",
          "type": "uint8"
        },
        {
          "indexed": false,
          "internalType": "uint256",
          "name": "value",
          "type": "uint256"
        }
      ],
      "name": "Voted",
      "type": "event"
    },
    {
      "anonymous": false,
      "inputs": [
        {
          "indexed": false,
          "internalType": "address",
          "name": "voter",
          "type": "address"
        }
      ],
      "name": "VoterRegistered",
      "type": "event"
    },
    {
      "inputs": [],
      "name": "candidateVotes",
      "outputs": [
        {
          "internalType": "uint256[10]",
          "name": "",
          "type": "uint256[10]"
        }
      ],
      "stateMutability": "view",
      "type": "function"
    },
    {
      "inputs": [],
      "name": "owner",
      "outputs": [
        {
          "internalType": "address",
          "name": "",
          "type": "address"
        }
      ],
      "stateMutability": "view",
      "type": "function"
    },
    {
      "inputs": [
        {
          "internalType": "address",
          "name": "voter",
          "type": "address"
        }
      ],
      "name": "register",
      "outputs": [
        {
          "internalType": "bool",
          "name": "",
          "type": "bool"
        }
      ],
      "stateMutability": "nonpayable",
      "type": "function"
    },
    {
      "inputs": [],
      "name": "renounceOwnership",
      "outputs": [],
      "stateMutability": "nonpayable",
      "type": "function"
    },
    {
      "inputs": [
        {
          "internalType": "bool",
          "name": "status",
          "type": "bool"
        }
      ],
      "name": "setVotingStatus",
      "outputs": [
        {
          "internalType": "bool",
          "name": "",
          "type": "bool"
        }
      ],
      "stateMutability": "nonpayable",
      "type": "function"
    },
    {
      "inputs": [
        {
          "internalType": "uint256",
          "name": "",
          "type": "uint256"
        }
      ],
      "name": "topCandidates",
      "outputs": [
        {
          "internalType": "uint8",
          "name": "",
          "type": "uint8"
        }
      ],
      "stateMutability": "view",
      "type": "function"
    },
    {
      "inputs": [
        {
          "internalType": "address",
          "name": "newOwner",
          "type": "address"
        }
      ],
      "name": "transferOwnership",
      "outputs": [],
      "stateMutability": "nonpayable",
      "type": "function"
    },
    {
      "inputs": [
        {
          "internalType": "address",
          "name": "voter",
          "type": "address"
        },
        {
          "internalType": "uint8",
          "name": "candidate",
          "type": "uint8"
        },
        {
          "internalType": "uint256",
          "name": "value",
          "type": "uint256"
        }
      ],
      "name": "vote",
      "outputs": [
        {
          "internalType": "bool",
          "name": "",
          "type": "bool"
        }
      ],
      "stateMutability": "nonpayable",
      "type": "function"
    },
    {
      "inputs": [
        {
          "internalType": "address",
          "name": "",
          "type": "address"
        }
      ],
      "name": "voted",
      "outputs": [
        {
          "internalType": "bool",
          "name": "",
          "type": "bool"
        }
      ],
      "stateMutability": "view",
      "type": "function"
    },
    {
      "inputs": [
        {
          "internalType": "address",
          "name": "",
          "type": "address"
        }
      ],
      "name": "voters",
      "outputs": [
        {
          "internalType": "bool",
          "name": "",
          "type": "bool"
        }
      ],
      "stateMutability": "view",
      "type": "function"
    },
    {
      "inputs": [
        {
          "internalType": "uint256",
          "name": "",
          "type": "uint256"
        }
      ],
      "name": "votes",
      "outputs": [
        {
          "internalType": "uint256",
          "name": "",
          "type": "uint256"
        }
      ],
      "stateMutability": "view",
      "type": "function"
    },
    {
      "inputs": [],
      "name": "votingStatus",
      "outputs": [
        {
          "internalType": "bool",
          "name": "",
          "type": "bool"
        }
      ],
      "stateMutability": "view",
      "type": "function"
    },
    {
      "inputs": [],
      "name": "winningCandidates",
      "outputs": [
        {
          "internalType": "uint8[3]",
          "name": "",
          "type": "uint8[3]"
        }
      ],
      "stateMutability": "view",
      "type": "function"
    },
    {
      "inputs": [],
      "name": "wknd",
      "outputs": [
        {
          "internalType": "contract IERC20",
          "name": "",
          "type": "address"
        }
      ],
      "stateMutability": "view",
      "type": "function"
    }
  ],
  "bytecode": "0x60806040523480156200001157600080fd5b5060405162001ecd38038062001ecd8339818101604052810190620000379190620001e9565b620000576200004b6200009f60201b60201c565b620000a760201b60201c565b80600f60006101000a81548173ffffffffffffffffffffffffffffffffffffffff021916908373ffffffffffffffffffffffffffffffffffffffff160217905550506200021b565b600033905090565b60008060009054906101000a900473ffffffffffffffffffffffffffffffffffffffff169050816000806101000a81548173ffffffffffffffffffffffffffffffffffffffff021916908373ffffffffffffffffffffffffffffffffffffffff1602179055508173ffffffffffffffffffffffffffffffffffffffff168173ffffffffffffffffffffffffffffffffffffffff167f8be0079c531659141344cd1fd0a4f28419497f9722a3daafe3b4186f6b6457e060405160405180910390a35050565b600080fd5b600073ffffffffffffffffffffffffffffffffffffffff82169050919050565b60006200019d8262000170565b9050919050565b6000620001b18262000190565b9050919050565b620001c381620001a4565b8114620001cf57600080fd5b50565b600081519050620001e381620001b8565b92915050565b6000602082840312156200020257620002016200016b565b5b60006200021284828501620001d2565b91505092915050565b611ca2806200022b6000396000f3fe608060405234801561001057600080fd5b50600436106100ea5760003560e01c8063715018a61161008c5780638da5cb5b116100665780638da5cb5b14610261578063a3ec138d1461027f578063aec2ccae146102af578063f2fde38b146102df576100ea565b8063715018a6146102095780637478c9fe1461021357806383d7558a14610243576100ea565b8063317b6628116100c8578063317b66281461015b578063377968d41461018b5780634420e486146101a95780635df81330146101d9576100ea565b806312f083b5146100ef57806319f41a401461010d5780631e00eb7f1461012b575b600080fd5b6100f76102fb565b604051610104919061127d565b60405180910390f35b610115610321565b60405161012291906112b3565b60405180910390f35b61014560048036038101906101409190611380565b610334565b60405161015291906112b3565b60405180910390f35b610175600480360381019061017091906113d3565b610738565b604051610182919061140f565b60405180910390f35b610193610762565b6040516101a091906114d5565b60405180910390f35b6101c360048036038101906101be91906114f0565b6107d3565b6040516101d091906112b3565b60405180910390f35b6101f360048036038101906101ee91906113d3565b6109a4565b604051610200919061152c565b60405180910390f35b6102116109bf565b005b61022d60048036038101906102289190611573565b6109d3565b60405161023a91906112b3565b60405180910390f35b61024b610a00565b604051610258919061164b565b60405180910390f35b610269610a79565b6040516102769190611676565b60405180910390f35b610299600480360381019061029491906114f0565b610aa2565b6040516102a691906112b3565b60405180910390f35b6102c960048036038101906102c491906114f0565b610ac2565b6040516102d691906112b3565b60405180910390f35b6102f960048036038101906102f491906114f0565b610ae2565b005b600f60009054906101000a900473ffffffffffffffffffffffffffffffffffffffff1681565b600f60149054906101000a900460ff1681565b6000600f60149054906101000a900460ff16610385576040517f08c379a000000000000000000000000000000000000000000000000000000000815260040161037c906116ee565b60405180910390fd5b61038d610b65565b83600c60008273ffffffffffffffffffffffffffffffffffffffff1673ffffffffffffffffffffffffffffffffffffffff16815260200190815260200160002060009054906101000a900460ff1661041a576040517f08c379a00000000000000000000000000000000000000000000000000000000081526004016104119061175a565b60405180910390fd5b83600c8160ff16108015610431575060008160ff16115b610470576040517f08c379a0000000000000000000000000000000000000000000000000000000008152600401610467906117c6565b60405180910390fd5b600084116104b3576040517f08c379a00000000000000000000000000000000000000000000000000000000081526004016104aa90611832565b60405180910390fd5b600d60008773ffffffffffffffffffffffffffffffffffffffff1673ffffffffffffffffffffffffffffffffffffffff16815260200190815260200160002060009054906101000a900460ff1615610540576040517f08c379a00000000000000000000000000000000000000000000000000000000081526004016105379061189e565b60405180910390fd5b600061054b86610be3565b9050600f60009054906101000a900473ffffffffffffffffffffffffffffffffffffffff1673ffffffffffffffffffffffffffffffffffffffff166323b872dd8830886040518463ffffffff1660e01b81526004016105ac939291906118be565b6020604051808303816000875af11580156105cb573d6000803e3d6000fd5b505050506040513d601f19601f820116820180604052508101906105ef919061190a565b508460018760ff16600b811061060857610607611937565b5b0160008282546106189190611995565b925050819055506001600d60008973ffffffffffffffffffffffffffffffffffffffff1673ffffffffffffffffffffffffffffffffffffffff16815260200190815260200160002060006101000a81548160ff0219169083151502179055507f78d96294d2cf18d8e22a8ad08170a97b7b0fbb5679ae831255aed8508c124ac98787876040516106aa939291906119eb565b60405180910390a16106d48660018860ff16600b81106106cd576106cc611937565b5b0154610c52565b60006106df87610be3565b9050811580156106ec5750805b15610729577f9977920664847e18e55e52723e43c9c52eec028b5fa912e4eef38798fe7b196987604051610720919061140f565b60405180910390a15b60019450505050509392505050565b600e816003811061074857600080fd5b60209182820401919006915054906101000a900460ff1681565b61076a611102565b600e6003806020026040519081016040528092919082600380156107c9576020028201916000905b82829054906101000a900460ff1660ff16815260200190600101906020826000010492830192600103820291508084116107925790505b5050505050905090565b60006107dd610b65565b600c60008373ffffffffffffffffffffffffffffffffffffffff1673ffffffffffffffffffffffffffffffffffffffff16815260200190815260200160002060009054906101000a900460ff161561086a576040517f08c379a000000000000000000000000000000000000000000000000000000000815260040161086190611a6e565b60405180910390fd5b6001600c60008473ffffffffffffffffffffffffffffffffffffffff1673ffffffffffffffffffffffffffffffffffffffff16815260200190815260200160002060006101000a81548160ff021916908315150217905550600f60009054906101000a900473ffffffffffffffffffffffffffffffffffffffff1673ffffffffffffffffffffffffffffffffffffffff1663a9059cbb8360016040518363ffffffff1660e01b8152600401610920929190611ac9565b6020604051808303816000875af115801561093f573d6000803e3d6000fd5b505050506040513d601f19601f82011682018060405250810190610963919061190a565b507fb6be2187d059cc2a55fe29e0e503b566e1e0f8c8780096e185429350acffd3dd826040516109939190611676565b60405180910390a160019050919050565b600181600b81106109b457600080fd5b016000915090505481565b6109c7610b65565b6109d16000611036565b565b60006109dd610b65565b81600f60146101000a81548160ff02191690831515021790555060019050919050565b610a08611124565b610a10611124565b6000600190505b600b811015610a7157600181600b8110610a3457610a33611937565b5b015482600183610a449190611af2565b600a8110610a5557610a54611937565b5b6020020181815250508080610a6990611b26565b915050610a17565b508091505090565b60008060009054906101000a900473ffffffffffffffffffffffffffffffffffffffff16905090565b600c6020528060005260406000206000915054906101000a900460ff1681565b600d6020528060005260406000206000915054906101000a900460ff1681565b610aea610b65565b600073ffffffffffffffffffffffffffffffffffffffff168173ffffffffffffffffffffffffffffffffffffffff1603610b59576040517f08c379a0000000000000000000000000000000000000000000000000000000008152600401610b5090611be0565b60405180910390fd5b610b6281611036565b50565b610b6d6110fa565b73ffffffffffffffffffffffffffffffffffffffff16610b8b610a79565b73ffffffffffffffffffffffffffffffffffffffff1614610be1576040517f08c379a0000000000000000000000000000000000000000000000000000000008152600401610bd890611c4c565b60405180910390fd5b565b600080600090505b6003811015610c47578260ff16600e8260038110610c0c57610c0b611937565b5b602091828204019190069054906101000a900460ff1660ff1603610c34576001915050610c4d565b8080610c3f90611b26565b915050610beb565b50600090505b919050565b6000600e600380602002604051908101604052809291908260038015610cb3576020028201916000905b82829054906101000a900460ff1660ff1681526020019060010190602082600001049283019260010382029150808411610c7c5790505b50505050509050600181600060038110610cd057610ccf611937565b5b602002015160ff16600b8110610ce957610ce8611937565b5b0154821115610e495780600060038110610d0657610d05611937565b5b602002015160ff168360ff1603610d1d5750611032565b80600160038110610d3157610d30611937565b5b602002015160ff168360ff1603610da75780600060038110610d5657610d55611937565b5b60200201518382600160038110610d7057610d6f611937565b5b6020020183600060038110610d8857610d87611937565b5b602002018260ff1660ff168152508260ff1660ff168152505050610e44565b80600160038110610dbb57610dba611937565b5b602002015181600060038110610dd457610dd3611937565b5b60200201518483600260038110610dee57610ded611937565b5b6020020184600160038110610e0657610e05611937565b5b6020020185600060038110610e1e57610e1d611937565b5b602002018360ff1660ff168152508360ff1660ff168152508360ff1660ff168152505050505b61101e565b600181600160038110610e5f57610e5e611937565b5b602002015160ff16600b8110610e7857610e77611937565b5b0154821115610f3c5780600060038110610e9557610e94611937565b5b602002015160ff168360ff1603610eac5750611032565b80600160038110610ec057610ebf611937565b5b602002015160ff168360ff1603610ed75750611032565b80600160038110610eeb57610eea611937565b5b60200201518382600260038110610f0557610f04611937565b5b6020020183600160038110610f1d57610f1c611937565b5b602002018260ff1660ff168152508260ff1660ff16815250505061101d565b600181600260038110610f5257610f51611937565b5b602002015160ff16600b8110610f6b57610f6a611937565b5b015482111561101c5780600060038110610f8857610f87611937565b5b602002015160ff168360ff1603610f9f5750611032565b80600160038110610fb357610fb2611937565b5b602002015160ff168360ff1603610fca5750611032565b80600260038110610fde57610fdd611937565b5b602002015160ff168360ff1603610ff55750611032565b828160026003811061100a57611009611937565b5b602002019060ff16908160ff16815250505b5b5b80600e90600361102f929190611147565b50505b5050565b60008060009054906101000a900473ffffffffffffffffffffffffffffffffffffffff169050816000806101000a81548173ffffffffffffffffffffffffffffffffffffffff021916908373ffffffffffffffffffffffffffffffffffffffff1602179055508173ffffffffffffffffffffffffffffffffffffffff168173ffffffffffffffffffffffffffffffffffffffff167f8be0079c531659141344cd1fd0a4f28419497f9722a3daafe3b4186f6b6457e060405160405180910390a35050565b600033905090565b6040518060600160405280600390602082028036833780820191505090505090565b604051806101400160405280600a90602082028036833780820191505090505090565b826003601f016020900481019282156111d05791602002820160005b838211156111a157835183826101000a81548160ff021916908360ff1602179055509260200192600101602081600001049283019260010302611163565b80156111ce5782816101000a81549060ff02191690556001016020816000010492830192600103026111a1565b505b5090506111dd91906111e1565b5090565b5b808211156111fa5760008160009055506001016111e2565b5090565b600073ffffffffffffffffffffffffffffffffffffffff82169050919050565b6000819050919050565b600061124361123e611239846111fe565b61121e565b6111fe565b9050919050565b600061125582611228565b9050919050565b60006112678261124a565b9050919050565b6112778161125c565b82525050565b6000602082019050611292600083018461126e565b92915050565b60008115159050919050565b6112ad81611298565b82525050565b60006020820190506112c860008301846112a4565b92915050565b600080fd5b60006112de826111fe565b9050919050565b6112ee816112d3565b81146112f957600080fd5b50565b60008135905061130b816112e5565b92915050565b600060ff82169050919050565b61132781611311565b811461133257600080fd5b50565b6000813590506113448161131e565b92915050565b6000819050919050565b61135d8161134a565b811461136857600080fd5b50565b60008135905061137a81611354565b92915050565b600080600060608486031215611399576113986112ce565b5b60006113a7868287016112fc565b93505060206113b886828701611335565b92505060406113c98682870161136b565b9150509250925092565b6000602082840312156113e9576113e86112ce565b5b60006113f78482850161136b565b91505092915050565b61140981611311565b82525050565b60006020820190506114246000830184611400565b92915050565b600060039050919050565b600081905092915050565b6000819050919050565b61145381611311565b82525050565b6000611465838361144a565b60208301905092915050565b6000602082019050919050565b6114878161142a565b6114918184611435565b925061149c82611440565b8060005b838110156114cd5781516114b48782611459565b96506114bf83611471565b9250506001810190506114a0565b505050505050565b60006060820190506114ea600083018461147e565b92915050565b600060208284031215611506576115056112ce565b5b6000611514848285016112fc565b91505092915050565b6115268161134a565b82525050565b6000602082019050611541600083018461151d565b92915050565b61155081611298565b811461155b57600080fd5b50565b60008135905061156d81611547565b92915050565b600060208284031215611589576115886112ce565b5b60006115978482850161155e565b91505092915050565b6000600a9050919050565b600081905092915050565b6000819050919050565b6115c98161134a565b82525050565b60006115db83836115c0565b60208301905092915050565b6000602082019050919050565b6115fd816115a0565b61160781846115ab565b9250611612826115b6565b8060005b8381101561164357815161162a87826115cf565b9650611635836115e7565b925050600181019050611616565b505050505050565b60006101408201905061166160008301846115f4565b92915050565b611670816112d3565b82525050565b600060208201905061168b6000830184611667565b92915050565b600082825260208201905092915050565b7f566f74696e672070617573656400000000000000000000000000000000000000600082015250565b60006116d8600d83611691565b91506116e3826116a2565b602082019050919050565b60006020820190508181036000830152611707816116cb565b9050919050565b7f566f746572206e6f742072656769737465726564000000000000000000000000600082015250565b6000611744601483611691565b915061174f8261170e565b602082019050919050565b6000602082019050818103600083015261177381611737565b9050919050565b7f496e76616c69642063616e646964617465000000000000000000000000000000600082015250565b60006117b0601183611691565b91506117bb8261177a565b602082019050919050565b600060208201905081810360008301526117df816117a3565b9050919050565b7f3020574b4e4420746f6b656e732070726f766964656400000000000000000000600082015250565b600061181c601683611691565b9150611827826117e6565b602082019050919050565b6000602082019050818103600083015261184b8161180f565b9050919050565b7f416c726561647920766f74656400000000000000000000000000000000000000600082015250565b6000611888600d83611691565b915061189382611852565b602082019050919050565b600060208201905081810360008301526118b78161187b565b9050919050565b60006060820190506118d36000830186611667565b6118e06020830185611667565b6118ed604083018461151d565b949350505050565b60008151905061190481611547565b92915050565b6000602082840312156119205761191f6112ce565b5b600061192e848285016118f5565b91505092915050565b7f4e487b7100000000000000000000000000000000000000000000000000000000600052603260045260246000fd5b7f4e487b7100000000000000000000000000000000000000000000000000000000600052601160045260246000fd5b60006119a08261134a565b91506119ab8361134a565b9250827fffffffffffffffffffffffffffffffffffffffffffffffffffffffffffffffff038211156119e0576119df611966565b5b828201905092915050565b6000606082019050611a006000830186611667565b611a0d6020830185611400565b611a1a604083018461151d565b949350505050565b7f416c726561647920726567697374657265640000000000000000000000000000600082015250565b6000611a58601283611691565b9150611a6382611a22565b602082019050919050565b60006020820190508181036000830152611a8781611a4b565b9050919050565b6000819050919050565b6000611ab3611aae611aa984611a8e565b61121e565b61134a565b9050919050565b611ac381611a98565b82525050565b6000604082019050611ade6000830185611667565b611aeb6020830184611aba565b9392505050565b6000611afd8261134a565b9150611b088361134a565b925082821015611b1b57611b1a611966565b5b828203905092915050565b6000611b318261134a565b91507fffffffffffffffffffffffffffffffffffffffffffffffffffffffffffffffff8203611b6357611b62611966565b5b600182019050919050565b7f4f776e61626c653a206e6577206f776e657220697320746865207a65726f206160008201527f6464726573730000000000000000000000000000000000000000000000000000602082015250565b6000611bca602683611691565b9150611bd582611b6e565b604082019050919050565b60006020820190508181036000830152611bf981611bbd565b9050919050565b7f4f776e61626c653a2063616c6c6572206973206e6f7420746865206f776e6572600082015250565b6000611c36602083611691565b9150611c4182611c00565b602082019050919050565b60006020820190508181036000830152611c6581611c29565b905091905056fea264697066735822122053118d2e1fe6a00876eb684bbd689125fa2611e28d2eb767945d4d4d65f8cb4c64736f6c634300080f0033",
  "linkReferences": {},
  "deployedLinkReferences": {}
}