{
  "_format": "hh-sol-artifact-1",
  "contractName": "Voting",
  "sourceName": "contracts/Voting.sol",
  "abi": [
    {
      "inputs": [
        {
          "internalType": "contract IERC20",
          "name": "_wknd",
          "type": "address"
        }
      ],
      "stateMutability": "nonpayable",
      "type": "constructor"
    },
    {
      "anonymous": false,
      "inputs": [
        {
          "indexed": false,
          "internalType": "uint8",
          "name": "candidate",
          "type": "uint8"
        }
      ],
      "name": "NewChallanger",
      "type": "event"
    },
    {
      "anonymous": false,
      "inputs": [
        {
          "indexed": true,
          "internalType": "address",
          "name": "previousOwner",
          "type": "address"
        },
        {
          "indexed": true,
          "internalType": "address",
          "name": "newOwner",
          "type": "address"
        }
      ],
      "name": "OwnershipTransferred",
      "type": "event"
    },
    {
      "anonymous": false,
      "inputs": [
        {
          "indexed": false,
          "internalType": "address",
          "name": "voter",
          "type": "address"
        },
        {
          "indexed": false,
          "internalType": "uint8",
          "name": "candidate",
          "type": "uint8"
        },
        {
          "indexed": false,
          "internalType": "uint256",
          "name": "value",
          "type": "uint256"
        }
      ],
      "name": "Voted",
      "type": "event"
    },
    {
      "anonymous": false,
      "inputs": [
        {
          "indexed": false,
          "internalType": "address",
          "name": "voter",
          "type": "address"
        }
      ],
      "name": "VoterRegistered",
      "type": "event"
    },
    {
      "inputs": [],
      "name": "owner",
      "outputs": [
        {
          "internalType": "address",
          "name": "",
          "type": "address"
        }
      ],
      "stateMutability": "view",
      "type": "function"
    },
    {
      "inputs": [],
      "name": "register",
      "outputs": [
        {
          "internalType": "bool",
          "name": "",
          "type": "bool"
        }
      ],
      "stateMutability": "nonpayable",
      "type": "function"
    },
    {
      "inputs": [],
      "name": "renounceOwnership",
      "outputs": [],
      "stateMutability": "nonpayable",
      "type": "function"
    },
    {
      "inputs": [
        {
          "internalType": "bool",
          "name": "status",
          "type": "bool"
        }
      ],
      "name": "setVotingStatus",
      "outputs": [
        {
          "internalType": "bool",
          "name": "",
          "type": "bool"
        }
      ],
      "stateMutability": "nonpayable",
      "type": "function"
    },
    {
      "inputs": [
        {
          "internalType": "uint256",
          "name": "",
          "type": "uint256"
        }
      ],
      "name": "topCandidates",
      "outputs": [
        {
          "internalType": "uint8",
          "name": "",
          "type": "uint8"
        }
      ],
      "stateMutability": "view",
      "type": "function"
    },
    {
      "inputs": [
        {
          "internalType": "address",
          "name": "newOwner",
          "type": "address"
        }
      ],
      "name": "transferOwnership",
      "outputs": [],
      "stateMutability": "nonpayable",
      "type": "function"
    },
    {
      "inputs": [
        {
          "internalType": "uint8",
          "name": "candidate",
          "type": "uint8"
        },
        {
          "internalType": "uint256",
          "name": "value",
          "type": "uint256"
        }
      ],
      "name": "vote",
      "outputs": [
        {
          "internalType": "bool",
          "name": "",
          "type": "bool"
        }
      ],
      "stateMutability": "nonpayable",
      "type": "function"
    },
    {
      "inputs": [
        {
          "internalType": "address",
          "name": "",
          "type": "address"
        }
      ],
      "name": "voted",
      "outputs": [
        {
          "internalType": "bool",
          "name": "",
          "type": "bool"
        }
      ],
      "stateMutability": "view",
      "type": "function"
    },
    {
      "inputs": [
        {
          "internalType": "address",
          "name": "",
          "type": "address"
        }
      ],
      "name": "voters",
      "outputs": [
        {
          "internalType": "bool",
          "name": "",
          "type": "bool"
        }
      ],
      "stateMutability": "view",
      "type": "function"
    },
    {
      "inputs": [
        {
          "internalType": "uint256",
          "name": "",
          "type": "uint256"
        }
      ],
      "name": "votes",
      "outputs": [
        {
          "internalType": "uint256",
          "name": "",
          "type": "uint256"
        }
      ],
      "stateMutability": "view",
      "type": "function"
    },
    {
      "inputs": [],
      "name": "votingStatus",
      "outputs": [
        {
          "internalType": "bool",
          "name": "",
          "type": "bool"
        }
      ],
      "stateMutability": "view",
      "type": "function"
    },
    {
      "inputs": [],
      "name": "winningCandidates",
      "outputs": [
        {
          "internalType": "uint8[3]",
          "name": "",
          "type": "uint8[3]"
        }
      ],
      "stateMutability": "view",
      "type": "function"
    },
    {
      "inputs": [],
      "name": "wknd",
      "outputs": [
        {
          "internalType": "contract IERC20",
          "name": "",
          "type": "address"
        }
      ],
      "stateMutability": "view",
      "type": "function"
    }
  ],
  "bytecode": "0x60806040523480156200001157600080fd5b5060405162001cc538038062001cc58339818101604052810190620000379190620001e9565b620000576200004b6200009f60201b60201c565b620000a760201b60201c565b80600f60006101000a81548173ffffffffffffffffffffffffffffffffffffffff021916908373ffffffffffffffffffffffffffffffffffffffff160217905550506200021b565b600033905090565b60008060009054906101000a900473ffffffffffffffffffffffffffffffffffffffff169050816000806101000a81548173ffffffffffffffffffffffffffffffffffffffff021916908373ffffffffffffffffffffffffffffffffffffffff1602179055508173ffffffffffffffffffffffffffffffffffffffff168173ffffffffffffffffffffffffffffffffffffffff167f8be0079c531659141344cd1fd0a4f28419497f9722a3daafe3b4186f6b6457e060405160405180910390a35050565b600080fd5b600073ffffffffffffffffffffffffffffffffffffffff82169050919050565b60006200019d8262000170565b9050919050565b6000620001b18262000190565b9050919050565b620001c381620001a4565b8114620001cf57600080fd5b50565b600081519050620001e381620001b8565b92915050565b6000602082840312156200020257620002016200016b565b5b60006200021284828501620001d2565b91505092915050565b611a9a806200022b6000396000f3fe608060405234801561001057600080fd5b50600436106100cf5760003560e01c8063715018a61161008c578063a3ec138d11610066578063a3ec138d14610204578063aec2ccae14610234578063d3f29ace14610264578063f2fde38b14610294576100cf565b8063715018a6146101ac5780637478c9fe146101b65780638da5cb5b146101e6576100cf565b806312f083b5146100d457806319f41a40146100f25780631aa3a00814610110578063317b66281461012e578063377968d41461015e5780635df813301461017c575b600080fd5b6100dc6102b0565b6040516100e99190611183565b60405180910390f35b6100fa6102d6565b60405161010791906111b9565b60405180910390f35b6101186102e9565b60405161012591906111b9565b60405180910390f35b6101486004803603810190610143919061120f565b6104b0565b6040516101559190611258565b60405180910390f35b6101666104da565b604051610173919061131e565b60405180910390f35b6101966004803603810190610191919061120f565b61054b565b6040516101a39190611348565b60405180910390f35b6101b4610566565b005b6101d060048036038101906101cb919061138f565b61057a565b6040516101dd91906111b9565b60405180910390f35b6101ee6105a7565b6040516101fb91906113dd565b60405180910390f35b61021e60048036038101906102199190611424565b6105d0565b60405161022b91906111b9565b60405180910390f35b61024e60048036038101906102499190611424565b6105f0565b60405161025b91906111b9565b60405180910390f35b61027e6004803603810190610279919061147d565b610610565b60405161028b91906111b9565b60405180910390f35b6102ae60048036038101906102a99190611424565b610a0b565b005b600f60009054906101000a900473ffffffffffffffffffffffffffffffffffffffff1681565b600f60149054906101000a900460ff1681565b6000600c60003373ffffffffffffffffffffffffffffffffffffffff1673ffffffffffffffffffffffffffffffffffffffff16815260200190815260200160002060009054906101000a900460ff1615610378576040517f08c379a000000000000000000000000000000000000000000000000000000000815260040161036f9061151a565b60405180910390fd5b6001600c60003373ffffffffffffffffffffffffffffffffffffffff1673ffffffffffffffffffffffffffffffffffffffff16815260200190815260200160002060006101000a81548160ff021916908315150217905550600f60009054906101000a900473ffffffffffffffffffffffffffffffffffffffff1673ffffffffffffffffffffffffffffffffffffffff1663a9059cbb3360016040518363ffffffff1660e01b815260040161042e929190611575565b6020604051808303816000875af115801561044d573d6000803e3d6000fd5b505050506040513d601f19601f8201168201806040525081019061047191906115b3565b507fb6be2187d059cc2a55fe29e0e503b566e1e0f8c8780096e185429350acffd3dd336040516104a191906113dd565b60405180910390a16001905090565b600e81600381106104c057600080fd5b60209182820401919006915054906101000a900460ff1681565b6104e261102b565b600e600380602002604051908101604052809291908260038015610541576020028201916000905b82829054906101000a900460ff1660ff168152602001906001019060208260000104928301926001038202915080841161050a5790505b5050505050905090565b600181600b811061055b57600080fd5b016000915090505481565b61056e610a8e565b6105786000610b0c565b565b6000610584610a8e565b81600f60146101000a81548160ff02191690831515021790555060019050919050565b60008060009054906101000a900473ffffffffffffffffffffffffffffffffffffffff16905090565b600c6020528060005260406000206000915054906101000a900460ff1681565b600d6020528060005260406000206000915054906101000a900460ff1681565b6000600f60149054906101000a900460ff16610661576040517f08c379a00000000000000000000000000000000000000000000000000000000081526004016106589061162c565b60405180910390fd5b33600c60008273ffffffffffffffffffffffffffffffffffffffff1673ffffffffffffffffffffffffffffffffffffffff16815260200190815260200160002060009054906101000a900460ff166106ee576040517f08c379a00000000000000000000000000000000000000000000000000000000081526004016106e590611698565b60405180910390fd5b83600c8160ff16108015610705575060008160ff16115b610744576040517f08c379a000000000000000000000000000000000000000000000000000000000815260040161073b90611704565b60405180910390fd5b60008411610787576040517f08c379a000000000000000000000000000000000000000000000000000000000815260040161077e90611770565b60405180910390fd5b600d60003373ffffffffffffffffffffffffffffffffffffffff1673ffffffffffffffffffffffffffffffffffffffff16815260200190815260200160002060009054906101000a900460ff1615610814576040517f08c379a000000000000000000000000000000000000000000000000000000000815260040161080b906117dc565b60405180910390fd5b600061081f86610bd0565b9050600f60009054906101000a900473ffffffffffffffffffffffffffffffffffffffff1673ffffffffffffffffffffffffffffffffffffffff166323b872dd3330886040518463ffffffff1660e01b8152600401610880939291906117fc565b6020604051808303816000875af115801561089f573d6000803e3d6000fd5b505050506040513d601f19601f820116820180604052508101906108c391906115b3565b508460018760ff16600b81106108dc576108db611833565b5b0160008282546108ec9190611891565b925050819055506001600d60003373ffffffffffffffffffffffffffffffffffffffff1673ffffffffffffffffffffffffffffffffffffffff16815260200190815260200160002060006101000a81548160ff0219169083151502179055507f78d96294d2cf18d8e22a8ad08170a97b7b0fbb5679ae831255aed8508c124ac933878760405161097e939291906118e7565b60405180910390a16109a88660018860ff16600b81106109a1576109a0611833565b5b0154610c3f565b60006109b387610bd0565b9050811580156109c05750805b156109fd577f9977920664847e18e55e52723e43c9c52eec028b5fa912e4eef38798fe7b1969876040516109f49190611258565b60405180910390a15b600194505050505092915050565b610a13610a8e565b600073ffffffffffffffffffffffffffffffffffffffff168173ffffffffffffffffffffffffffffffffffffffff1603610a82576040517f08c379a0000000000000000000000000000000000000000000000000000000008152600401610a7990611990565b60405180910390fd5b610a8b81610b0c565b50565b610a96611023565b73ffffffffffffffffffffffffffffffffffffffff16610ab46105a7565b73ffffffffffffffffffffffffffffffffffffffff1614610b0a576040517f08c379a0000000000000000000000000000000000000000000000000000000008152600401610b01906119fc565b60405180910390fd5b565b60008060009054906101000a900473ffffffffffffffffffffffffffffffffffffffff169050816000806101000a81548173ffffffffffffffffffffffffffffffffffffffff021916908373ffffffffffffffffffffffffffffffffffffffff1602179055508173ffffffffffffffffffffffffffffffffffffffff168173ffffffffffffffffffffffffffffffffffffffff167f8be0079c531659141344cd1fd0a4f28419497f9722a3daafe3b4186f6b6457e060405160405180910390a35050565b600080600090505b6003811015610c34578260ff16600e8260038110610bf957610bf8611833565b5b602091828204019190069054906101000a900460ff1660ff1603610c21576001915050610c3a565b8080610c2c90611a1c565b915050610bd8565b50600090505b919050565b6000600e600380602002604051908101604052809291908260038015610ca0576020028201916000905b82829054906101000a900460ff1660ff1681526020019060010190602082600001049283019260010382029150808411610c695790505b50505050509050600181600060038110610cbd57610cbc611833565b5b602002015160ff16600b8110610cd657610cd5611833565b5b0154821115610e365780600060038110610cf357610cf2611833565b5b602002015160ff168360ff1603610d0a575061101f565b80600160038110610d1e57610d1d611833565b5b602002015160ff168360ff1603610d945780600060038110610d4357610d42611833565b5b60200201518382600160038110610d5d57610d5c611833565b5b6020020183600060038110610d7557610d74611833565b5b602002018260ff1660ff168152508260ff1660ff168152505050610e31565b80600160038110610da857610da7611833565b5b602002015181600060038110610dc157610dc0611833565b5b60200201518483600260038110610ddb57610dda611833565b5b6020020184600160038110610df357610df2611833565b5b6020020185600060038110610e0b57610e0a611833565b5b602002018360ff1660ff168152508360ff1660ff168152508360ff1660ff168152505050505b61100b565b600181600160038110610e4c57610e4b611833565b5b602002015160ff16600b8110610e6557610e64611833565b5b0154821115610f295780600060038110610e8257610e81611833565b5b602002015160ff168360ff1603610e99575061101f565b80600160038110610ead57610eac611833565b5b602002015160ff168360ff1603610ec4575061101f565b80600160038110610ed857610ed7611833565b5b60200201518382600260038110610ef257610ef1611833565b5b6020020183600160038110610f0a57610f09611833565b5b602002018260ff1660ff168152508260ff1660ff16815250505061100a565b600181600260038110610f3f57610f3e611833565b5b602002015160ff16600b8110610f5857610f57611833565b5b01548211156110095780600060038110610f7557610f74611833565b5b602002015160ff168360ff1603610f8c575061101f565b80600160038110610fa057610f9f611833565b5b602002015160ff168360ff1603610fb7575061101f565b80600260038110610fcb57610fca611833565b5b602002015160ff168360ff1603610fe2575061101f565b8281600260038110610ff757610ff6611833565b5b602002019060ff16908160ff16815250505b5b5b80600e90600361101c92919061104d565b50505b5050565b600033905090565b6040518060600160405280600390602082028036833780820191505090505090565b826003601f016020900481019282156110d65791602002820160005b838211156110a757835183826101000a81548160ff021916908360ff1602179055509260200192600101602081600001049283019260010302611069565b80156110d45782816101000a81549060ff02191690556001016020816000010492830192600103026110a7565b505b5090506110e391906110e7565b5090565b5b808211156111005760008160009055506001016110e8565b5090565b600073ffffffffffffffffffffffffffffffffffffffff82169050919050565b6000819050919050565b600061114961114461113f84611104565b611124565b611104565b9050919050565b600061115b8261112e565b9050919050565b600061116d82611150565b9050919050565b61117d81611162565b82525050565b60006020820190506111986000830184611174565b92915050565b60008115159050919050565b6111b38161119e565b82525050565b60006020820190506111ce60008301846111aa565b92915050565b600080fd5b6000819050919050565b6111ec816111d9565b81146111f757600080fd5b50565b600081359050611209816111e3565b92915050565b600060208284031215611225576112246111d4565b5b6000611233848285016111fa565b91505092915050565b600060ff82169050919050565b6112528161123c565b82525050565b600060208201905061126d6000830184611249565b92915050565b600060039050919050565b600081905092915050565b6000819050919050565b61129c8161123c565b82525050565b60006112ae8383611293565b60208301905092915050565b6000602082019050919050565b6112d081611273565b6112da818461127e565b92506112e582611289565b8060005b838110156113165781516112fd87826112a2565b9650611308836112ba565b9250506001810190506112e9565b505050505050565b600060608201905061133360008301846112c7565b92915050565b611342816111d9565b82525050565b600060208201905061135d6000830184611339565b92915050565b61136c8161119e565b811461137757600080fd5b50565b60008135905061138981611363565b92915050565b6000602082840312156113a5576113a46111d4565b5b60006113b38482850161137a565b91505092915050565b60006113c782611104565b9050919050565b6113d7816113bc565b82525050565b60006020820190506113f260008301846113ce565b92915050565b611401816113bc565b811461140c57600080fd5b50565b60008135905061141e816113f8565b92915050565b60006020828403121561143a576114396111d4565b5b60006114488482850161140f565b91505092915050565b61145a8161123c565b811461146557600080fd5b50565b60008135905061147781611451565b92915050565b60008060408385031215611494576114936111d4565b5b60006114a285828601611468565b92505060206114b3858286016111fa565b9150509250929050565b600082825260208201905092915050565b7f416c726561647920726567697374657265640000000000000000000000000000600082015250565b60006115046012836114bd565b915061150f826114ce565b602082019050919050565b60006020820190508181036000830152611533816114f7565b9050919050565b6000819050919050565b600061155f61155a6115558461153a565b611124565b6111d9565b9050919050565b61156f81611544565b82525050565b600060408201905061158a60008301856113ce565b6115976020830184611566565b9392505050565b6000815190506115ad81611363565b92915050565b6000602082840312156115c9576115c86111d4565b5b60006115d78482850161159e565b91505092915050565b7f566f74696e672070617573656400000000000000000000000000000000000000600082015250565b6000611616600d836114bd565b9150611621826115e0565b602082019050919050565b6000602082019050818103600083015261164581611609565b9050919050565b7f566f746572206e6f742072656769737465726564000000000000000000000000600082015250565b60006116826014836114bd565b915061168d8261164c565b602082019050919050565b600060208201905081810360008301526116b181611675565b9050919050565b7f496e76616c69642063616e646964617465000000000000000000000000000000600082015250565b60006116ee6011836114bd565b91506116f9826116b8565b602082019050919050565b6000602082019050818103600083015261171d816116e1565b9050919050565b7f3020574b4e4420746f6b656e732070726f766964656400000000000000000000600082015250565b600061175a6016836114bd565b915061176582611724565b602082019050919050565b600060208201905081810360008301526117898161174d565b9050919050565b7f416c726561647920766f74656400000000000000000000000000000000000000600082015250565b60006117c6600d836114bd565b91506117d182611790565b602082019050919050565b600060208201905081810360008301526117f5816117b9565b9050919050565b600060608201905061181160008301866113ce565b61181e60208301856113ce565b61182b6040830184611339565b949350505050565b7f4e487b7100000000000000000000000000000000000000000000000000000000600052603260045260246000fd5b7f4e487b7100000000000000000000000000000000000000000000000000000000600052601160045260246000fd5b600061189c826111d9565b91506118a7836111d9565b9250827fffffffffffffffffffffffffffffffffffffffffffffffffffffffffffffffff038211156118dc576118db611862565b5b828201905092915050565b60006060820190506118fc60008301866113ce565b6119096020830185611249565b6119166040830184611339565b949350505050565b7f4f776e61626c653a206e6577206f776e657220697320746865207a65726f206160008201527f6464726573730000000000000000000000000000000000000000000000000000602082015250565b600061197a6026836114bd565b91506119858261191e565b604082019050919050565b600060208201905081810360008301526119a98161196d565b9050919050565b7f4f776e61626c653a2063616c6c6572206973206e6f7420746865206f776e6572600082015250565b60006119e66020836114bd565b91506119f1826119b0565b602082019050919050565b60006020820190508181036000830152611a15816119d9565b9050919050565b6000611a27826111d9565b91507fffffffffffffffffffffffffffffffffffffffffffffffffffffffffffffffff8203611a5957611a58611862565b5b60018201905091905056fea2646970667358221220243f9195b28764a4b4069d6b3aff7241c698b5751ba74c4a18bbe2945d9a415764736f6c634300080f0033",
  "linkReferences": {},
  "deployedLinkReferences": {}
}