{
  "_format": "hh-sol-artifact-1",
  "contractName": "Voting",
  "sourceName": "contracts/Voting.sol",
  "abi": [
    {
      "inputs": [
        {
          "internalType": "contract IERC20",
          "name": "_wknd",
          "type": "address"
        }
      ],
      "stateMutability": "nonpayable",
      "type": "constructor"
    },
    {
      "anonymous": false,
      "inputs": [
        {
          "indexed": false,
          "internalType": "string[10]",
          "name": "candidates",
          "type": "string[10]"
        }
      ],
      "name": "CandidatesSet",
      "type": "event"
    },
    {
      "anonymous": false,
      "inputs": [
        {
          "indexed": false,
          "internalType": "uint8",
          "name": "candidate",
          "type": "uint8"
        }
      ],
      "name": "NewChallanger",
      "type": "event"
    },
    {
      "anonymous": false,
      "inputs": [
        {
          "indexed": true,
          "internalType": "address",
          "name": "previousOwner",
          "type": "address"
        },
        {
          "indexed": true,
          "internalType": "address",
          "name": "newOwner",
          "type": "address"
        }
      ],
      "name": "OwnershipTransferred",
      "type": "event"
    },
    {
      "anonymous": false,
      "inputs": [
        {
          "indexed": false,
          "internalType": "address",
          "name": "voter",
          "type": "address"
        },
        {
          "indexed": false,
          "internalType": "uint8",
          "name": "candidate",
          "type": "uint8"
        },
        {
          "indexed": false,
          "internalType": "uint256",
          "name": "value",
          "type": "uint256"
        }
      ],
      "name": "Voted",
      "type": "event"
    },
    {
      "anonymous": false,
      "inputs": [
        {
          "indexed": false,
          "internalType": "address",
          "name": "voter",
          "type": "address"
        }
      ],
      "name": "VoterRegistered",
      "type": "event"
    },
    {
      "inputs": [],
      "name": "owner",
      "outputs": [
        {
          "internalType": "address",
          "name": "",
          "type": "address"
        }
      ],
      "stateMutability": "view",
      "type": "function"
    },
    {
      "inputs": [],
      "name": "register",
      "outputs": [
        {
          "internalType": "bool",
          "name": "",
          "type": "bool"
        }
      ],
      "stateMutability": "nonpayable",
      "type": "function"
    },
    {
      "inputs": [],
      "name": "renounceOwnership",
      "outputs": [],
      "stateMutability": "nonpayable",
      "type": "function"
    },
    {
      "inputs": [
        {
          "internalType": "uint256",
          "name": "",
          "type": "uint256"
        }
      ],
      "name": "topCandidates",
      "outputs": [
        {
          "internalType": "uint8",
          "name": "",
          "type": "uint8"
        }
      ],
      "stateMutability": "view",
      "type": "function"
    },
    {
      "inputs": [
        {
          "internalType": "address",
          "name": "newOwner",
          "type": "address"
        }
      ],
      "name": "transferOwnership",
      "outputs": [],
      "stateMutability": "nonpayable",
      "type": "function"
    },
    {
      "inputs": [
        {
          "internalType": "uint8",
          "name": "candidate",
          "type": "uint8"
        },
        {
          "internalType": "uint256",
          "name": "value",
          "type": "uint256"
        }
      ],
      "name": "vote",
      "outputs": [
        {
          "internalType": "bool",
          "name": "",
          "type": "bool"
        }
      ],
      "stateMutability": "nonpayable",
      "type": "function"
    },
    {
      "inputs": [
        {
          "internalType": "address",
          "name": "",
          "type": "address"
        }
      ],
      "name": "voted",
      "outputs": [
        {
          "internalType": "bool",
          "name": "",
          "type": "bool"
        }
      ],
      "stateMutability": "view",
      "type": "function"
    },
    {
      "inputs": [
        {
          "internalType": "address",
          "name": "",
          "type": "address"
        }
      ],
      "name": "voters",
      "outputs": [
        {
          "internalType": "bool",
          "name": "",
          "type": "bool"
        }
      ],
      "stateMutability": "view",
      "type": "function"
    },
    {
      "inputs": [
        {
          "internalType": "uint256",
          "name": "",
          "type": "uint256"
        }
      ],
      "name": "votes",
      "outputs": [
        {
          "internalType": "uint256",
          "name": "",
          "type": "uint256"
        }
      ],
      "stateMutability": "view",
      "type": "function"
    },
    {
      "inputs": [],
      "name": "winningCandidates",
      "outputs": [
        {
          "internalType": "uint8[3]",
          "name": "",
          "type": "uint8[3]"
        }
      ],
      "stateMutability": "view",
      "type": "function"
    },
    {
      "inputs": [],
      "name": "wknd",
      "outputs": [
        {
          "internalType": "contract IERC20",
          "name": "",
          "type": "address"
        }
      ],
      "stateMutability": "view",
      "type": "function"
    }
  ],
  "bytecode": "0x60806040523480156200001157600080fd5b5060405162001b1438038062001b148339818101604052810190620000379190620001e9565b620000576200004b6200009f60201b60201c565b620000a760201b60201c565b80600f60006101000a81548173ffffffffffffffffffffffffffffffffffffffff021916908373ffffffffffffffffffffffffffffffffffffffff160217905550506200021b565b600033905090565b60008060009054906101000a900473ffffffffffffffffffffffffffffffffffffffff169050816000806101000a81548173ffffffffffffffffffffffffffffffffffffffff021916908373ffffffffffffffffffffffffffffffffffffffff1602179055508173ffffffffffffffffffffffffffffffffffffffff168173ffffffffffffffffffffffffffffffffffffffff167f8be0079c531659141344cd1fd0a4f28419497f9722a3daafe3b4186f6b6457e060405160405180910390a35050565b600080fd5b600073ffffffffffffffffffffffffffffffffffffffff82169050919050565b60006200019d8262000170565b9050919050565b6000620001b18262000190565b9050919050565b620001c381620001a4565b8114620001cf57600080fd5b50565b600081519050620001e381620001b8565b92915050565b6000602082840312156200020257620002016200016b565b5b60006200021284828501620001d2565b91505092915050565b6118e9806200022b6000396000f3fe608060405234801561001057600080fd5b50600436106100a95760003560e01c8063715018a611610071578063715018a6146101685780638da5cb5b14610172578063a3ec138d14610190578063aec2ccae146101c0578063d3f29ace146101f0578063f2fde38b14610220576100a9565b806312f083b5146100ae5780631aa3a008146100cc578063317b6628146100ea578063377968d41461011a5780635df8133014610138575b600080fd5b6100b661023c565b6040516100c39190611080565b60405180910390f35b6100d4610262565b6040516100e191906110b6565b60405180910390f35b61010460048036038101906100ff919061110c565b610429565b6040516101119190611155565b60405180910390f35b610122610453565b60405161012f919061121b565b60405180910390f35b610152600480360381019061014d919061110c565b6104c4565b60405161015f9190611245565b60405180910390f35b6101706104df565b005b61017a6104f3565b6040516101879190611281565b60405180910390f35b6101aa60048036038101906101a591906112c8565b61051c565b6040516101b791906110b6565b60405180910390f35b6101da60048036038101906101d591906112c8565b61053c565b6040516101e791906110b6565b60405180910390f35b61020a60048036038101906102059190611321565b61055c565b60405161021791906110b6565b60405180910390f35b61023a600480360381019061023591906112c8565b610908565b005b600f60009054906101000a900473ffffffffffffffffffffffffffffffffffffffff1681565b6000600c60003373ffffffffffffffffffffffffffffffffffffffff1673ffffffffffffffffffffffffffffffffffffffff16815260200190815260200160002060009054906101000a900460ff16156102f1576040517f08c379a00000000000000000000000000000000000000000000000000000000081526004016102e8906113be565b60405180910390fd5b6001600c60003373ffffffffffffffffffffffffffffffffffffffff1673ffffffffffffffffffffffffffffffffffffffff16815260200190815260200160002060006101000a81548160ff021916908315150217905550600f60009054906101000a900473ffffffffffffffffffffffffffffffffffffffff1673ffffffffffffffffffffffffffffffffffffffff1663a9059cbb3360016040518363ffffffff1660e01b81526004016103a7929190611419565b6020604051808303816000875af11580156103c6573d6000803e3d6000fd5b505050506040513d601f19601f820116820180604052508101906103ea919061146e565b507fb6be2187d059cc2a55fe29e0e503b566e1e0f8c8780096e185429350acffd3dd3360405161041a9190611281565b60405180910390a16001905090565b600e816003811061043957600080fd5b60209182820401919006915054906101000a900460ff1681565b61045b610f28565b600e6003806020026040519081016040528092919082600380156104ba576020028201916000905b82829054906101000a900460ff1660ff16815260200190600101906020826000010492830192600103820291508084116104835790505b5050505050905090565b600181600b81106104d457600080fd5b016000915090505481565b6104e761098b565b6104f16000610a09565b565b60008060009054906101000a900473ffffffffffffffffffffffffffffffffffffffff16905090565b600c6020528060005260406000206000915054906101000a900460ff1681565b600d6020528060005260406000206000915054906101000a900460ff1681565b600033600c60008273ffffffffffffffffffffffffffffffffffffffff1673ffffffffffffffffffffffffffffffffffffffff16815260200190815260200160002060009054906101000a900460ff166105eb576040517f08c379a00000000000000000000000000000000000000000000000000000000081526004016105e2906114e7565b60405180910390fd5b83600c8160ff16108015610602575060008160ff16115b610641576040517f08c379a000000000000000000000000000000000000000000000000000000000815260040161063890611553565b60405180910390fd5b60008411610684576040517f08c379a000000000000000000000000000000000000000000000000000000000815260040161067b906115bf565b60405180910390fd5b600d60003373ffffffffffffffffffffffffffffffffffffffff1673ffffffffffffffffffffffffffffffffffffffff16815260200190815260200160002060009054906101000a900460ff1615610711576040517f08c379a00000000000000000000000000000000000000000000000000000000081526004016107089061162b565b60405180910390fd5b600061071c86610acd565b9050600f60009054906101000a900473ffffffffffffffffffffffffffffffffffffffff1673ffffffffffffffffffffffffffffffffffffffff166323b872dd3330886040518463ffffffff1660e01b815260040161077d9392919061164b565b6020604051808303816000875af115801561079c573d6000803e3d6000fd5b505050506040513d601f19601f820116820180604052508101906107c0919061146e565b508460018760ff16600b81106107d9576107d8611682565b5b0160008282546107e991906116e0565b925050819055506001600d60003373ffffffffffffffffffffffffffffffffffffffff1673ffffffffffffffffffffffffffffffffffffffff16815260200190815260200160002060006101000a81548160ff0219169083151502179055507f78d96294d2cf18d8e22a8ad08170a97b7b0fbb5679ae831255aed8508c124ac933878760405161087b93929190611736565b60405180910390a16108a58660018860ff16600b811061089e5761089d611682565b5b0154610b3c565b60006108b087610acd565b9050811580156108bd5750805b156108fa577f9977920664847e18e55e52723e43c9c52eec028b5fa912e4eef38798fe7b1969876040516108f19190611155565b60405180910390a15b600194505050505092915050565b61091061098b565b600073ffffffffffffffffffffffffffffffffffffffff168173ffffffffffffffffffffffffffffffffffffffff160361097f576040517f08c379a0000000000000000000000000000000000000000000000000000000008152600401610976906117df565b60405180910390fd5b61098881610a09565b50565b610993610f20565b73ffffffffffffffffffffffffffffffffffffffff166109b16104f3565b73ffffffffffffffffffffffffffffffffffffffff1614610a07576040517f08c379a00000000000000000000000000000000000000000000000000000000081526004016109fe9061184b565b60405180910390fd5b565b60008060009054906101000a900473ffffffffffffffffffffffffffffffffffffffff169050816000806101000a81548173ffffffffffffffffffffffffffffffffffffffff021916908373ffffffffffffffffffffffffffffffffffffffff1602179055508173ffffffffffffffffffffffffffffffffffffffff168173ffffffffffffffffffffffffffffffffffffffff167f8be0079c531659141344cd1fd0a4f28419497f9722a3daafe3b4186f6b6457e060405160405180910390a35050565b600080600090505b6003811015610b31578260ff16600e8260038110610af657610af5611682565b5b602091828204019190069054906101000a900460ff1660ff1603610b1e576001915050610b37565b8080610b299061186b565b915050610ad5565b50600090505b919050565b6000600e600380602002604051908101604052809291908260038015610b9d576020028201916000905b82829054906101000a900460ff1660ff1681526020019060010190602082600001049283019260010382029150808411610b665790505b50505050509050600181600060038110610bba57610bb9611682565b5b602002015160ff16600b8110610bd357610bd2611682565b5b0154821115610d335780600060038110610bf057610bef611682565b5b602002015160ff168360ff1603610c075750610f1c565b80600160038110610c1b57610c1a611682565b5b602002015160ff168360ff1603610c915780600060038110610c4057610c3f611682565b5b60200201518382600160038110610c5a57610c59611682565b5b6020020183600060038110610c7257610c71611682565b5b602002018260ff1660ff168152508260ff1660ff168152505050610d2e565b80600160038110610ca557610ca4611682565b5b602002015181600060038110610cbe57610cbd611682565b5b60200201518483600260038110610cd857610cd7611682565b5b6020020184600160038110610cf057610cef611682565b5b6020020185600060038110610d0857610d07611682565b5b602002018360ff1660ff168152508360ff1660ff168152508360ff1660ff168152505050505b610f08565b600181600160038110610d4957610d48611682565b5b602002015160ff16600b8110610d6257610d61611682565b5b0154821115610e265780600060038110610d7f57610d7e611682565b5b602002015160ff168360ff1603610d965750610f1c565b80600160038110610daa57610da9611682565b5b602002015160ff168360ff1603610dc15750610f1c565b80600160038110610dd557610dd4611682565b5b60200201518382600260038110610def57610dee611682565b5b6020020183600160038110610e0757610e06611682565b5b602002018260ff1660ff168152508260ff1660ff168152505050610f07565b600181600260038110610e3c57610e3b611682565b5b602002015160ff16600b8110610e5557610e54611682565b5b0154821115610f065780600060038110610e7257610e71611682565b5b602002015160ff168360ff1603610e895750610f1c565b80600160038110610e9d57610e9c611682565b5b602002015160ff168360ff1603610eb45750610f1c565b80600260038110610ec857610ec7611682565b5b602002015160ff168360ff1603610edf5750610f1c565b8281600260038110610ef457610ef3611682565b5b602002019060ff16908160ff16815250505b5b5b80600e906003610f19929190610f4a565b50505b5050565b600033905090565b6040518060600160405280600390602082028036833780820191505090505090565b826003601f01602090048101928215610fd35791602002820160005b83821115610fa457835183826101000a81548160ff021916908360ff1602179055509260200192600101602081600001049283019260010302610f66565b8015610fd15782816101000a81549060ff0219169055600101602081600001049283019260010302610fa4565b505b509050610fe09190610fe4565b5090565b5b80821115610ffd576000816000905550600101610fe5565b5090565b600073ffffffffffffffffffffffffffffffffffffffff82169050919050565b6000819050919050565b600061104661104161103c84611001565b611021565b611001565b9050919050565b60006110588261102b565b9050919050565b600061106a8261104d565b9050919050565b61107a8161105f565b82525050565b60006020820190506110956000830184611071565b92915050565b60008115159050919050565b6110b08161109b565b82525050565b60006020820190506110cb60008301846110a7565b92915050565b600080fd5b6000819050919050565b6110e9816110d6565b81146110f457600080fd5b50565b600081359050611106816110e0565b92915050565b600060208284031215611122576111216110d1565b5b6000611130848285016110f7565b91505092915050565b600060ff82169050919050565b61114f81611139565b82525050565b600060208201905061116a6000830184611146565b92915050565b600060039050919050565b600081905092915050565b6000819050919050565b61119981611139565b82525050565b60006111ab8383611190565b60208301905092915050565b6000602082019050919050565b6111cd81611170565b6111d7818461117b565b92506111e282611186565b8060005b838110156112135781516111fa878261119f565b9650611205836111b7565b9250506001810190506111e6565b505050505050565b600060608201905061123060008301846111c4565b92915050565b61123f816110d6565b82525050565b600060208201905061125a6000830184611236565b92915050565b600061126b82611001565b9050919050565b61127b81611260565b82525050565b60006020820190506112966000830184611272565b92915050565b6112a581611260565b81146112b057600080fd5b50565b6000813590506112c28161129c565b92915050565b6000602082840312156112de576112dd6110d1565b5b60006112ec848285016112b3565b91505092915050565b6112fe81611139565b811461130957600080fd5b50565b60008135905061131b816112f5565b92915050565b60008060408385031215611338576113376110d1565b5b60006113468582860161130c565b9250506020611357858286016110f7565b9150509250929050565b600082825260208201905092915050565b7f416c726561647920726567697374657265640000000000000000000000000000600082015250565b60006113a8601283611361565b91506113b382611372565b602082019050919050565b600060208201905081810360008301526113d78161139b565b9050919050565b6000819050919050565b60006114036113fe6113f9846113de565b611021565b6110d6565b9050919050565b611413816113e8565b82525050565b600060408201905061142e6000830185611272565b61143b602083018461140a565b9392505050565b61144b8161109b565b811461145657600080fd5b50565b60008151905061146881611442565b92915050565b600060208284031215611484576114836110d1565b5b600061149284828501611459565b91505092915050565b7f566f746572206e6f742072656769737465726564000000000000000000000000600082015250565b60006114d1601483611361565b91506114dc8261149b565b602082019050919050565b60006020820190508181036000830152611500816114c4565b9050919050565b7f496e76616c69642063616e646964617465000000000000000000000000000000600082015250565b600061153d601183611361565b915061154882611507565b602082019050919050565b6000602082019050818103600083015261156c81611530565b9050919050565b7f3020574b4e4420746f6b656e732070726f766964656400000000000000000000600082015250565b60006115a9601683611361565b91506115b482611573565b602082019050919050565b600060208201905081810360008301526115d88161159c565b9050919050565b7f416c726561647920766f74656400000000000000000000000000000000000000600082015250565b6000611615600d83611361565b9150611620826115df565b602082019050919050565b6000602082019050818103600083015261164481611608565b9050919050565b60006060820190506116606000830186611272565b61166d6020830185611272565b61167a6040830184611236565b949350505050565b7f4e487b7100000000000000000000000000000000000000000000000000000000600052603260045260246000fd5b7f4e487b7100000000000000000000000000000000000000000000000000000000600052601160045260246000fd5b60006116eb826110d6565b91506116f6836110d6565b9250827fffffffffffffffffffffffffffffffffffffffffffffffffffffffffffffffff0382111561172b5761172a6116b1565b5b828201905092915050565b600060608201905061174b6000830186611272565b6117586020830185611146565b6117656040830184611236565b949350505050565b7f4f776e61626c653a206e6577206f776e657220697320746865207a65726f206160008201527f6464726573730000000000000000000000000000000000000000000000000000602082015250565b60006117c9602683611361565b91506117d48261176d565b604082019050919050565b600060208201905081810360008301526117f8816117bc565b9050919050565b7f4f776e61626c653a2063616c6c6572206973206e6f7420746865206f776e6572600082015250565b6000611835602083611361565b9150611840826117ff565b602082019050919050565b6000602082019050818103600083015261186481611828565b9050919050565b6000611876826110d6565b91507fffffffffffffffffffffffffffffffffffffffffffffffffffffffffffffffff82036118a8576118a76116b1565b5b60018201905091905056fea26469706673582212201c7bee4515ca34c28ec9f578a1b793f9ed3a0749d7017536ea7e44e0d82bc38b64736f6c634300080f0033",
  "linkReferences": {},
  "deployedLinkReferences": {}
}