{
  "_format": "hh-sol-artifact-1",
  "contractName": "Voting",
  "sourceName": "contracts/Voting.sol",
  "abi": [
    {
      "inputs": [
        {
          "internalType": "contract IERC20",
          "name": "_wknd",
          "type": "address"
        }
      ],
      "stateMutability": "nonpayable",
      "type": "constructor"
    },
    {
      "anonymous": false,
      "inputs": [
        {
          "indexed": false,
          "internalType": "uint8",
          "name": "candidate",
          "type": "uint8"
        }
      ],
      "name": "NewChallanger",
      "type": "event"
    },
    {
      "anonymous": false,
      "inputs": [
        {
          "indexed": true,
          "internalType": "address",
          "name": "previousOwner",
          "type": "address"
        },
        {
          "indexed": true,
          "internalType": "address",
          "name": "newOwner",
          "type": "address"
        }
      ],
      "name": "OwnershipTransferred",
      "type": "event"
    },
    {
      "anonymous": false,
      "inputs": [
        {
          "indexed": false,
          "internalType": "address",
          "name": "voter",
          "type": "address"
        },
        {
          "indexed": false,
          "internalType": "uint8",
          "name": "candidate",
          "type": "uint8"
        },
        {
          "indexed": false,
          "internalType": "uint256",
          "name": "value",
          "type": "uint256"
        }
      ],
      "name": "Voted",
      "type": "event"
    },
    {
      "anonymous": false,
      "inputs": [
        {
          "indexed": false,
          "internalType": "address",
          "name": "voter",
          "type": "address"
        }
      ],
      "name": "VoterRegistered",
      "type": "event"
    },
    {
      "inputs": [],
      "name": "candidateVotes",
      "outputs": [
        {
          "internalType": "uint256[10]",
          "name": "",
          "type": "uint256[10]"
        }
      ],
      "stateMutability": "view",
      "type": "function"
    },
    {
      "inputs": [],
      "name": "owner",
      "outputs": [
        {
          "internalType": "address",
          "name": "",
          "type": "address"
        }
      ],
      "stateMutability": "view",
      "type": "function"
    },
    {
      "inputs": [],
      "name": "register",
      "outputs": [
        {
          "internalType": "bool",
          "name": "",
          "type": "bool"
        }
      ],
      "stateMutability": "nonpayable",
      "type": "function"
    },
    {
      "inputs": [],
      "name": "renounceOwnership",
      "outputs": [],
      "stateMutability": "nonpayable",
      "type": "function"
    },
    {
      "inputs": [
        {
          "internalType": "bool",
          "name": "status",
          "type": "bool"
        }
      ],
      "name": "setVotingStatus",
      "outputs": [
        {
          "internalType": "bool",
          "name": "",
          "type": "bool"
        }
      ],
      "stateMutability": "nonpayable",
      "type": "function"
    },
    {
      "inputs": [
        {
          "internalType": "uint256",
          "name": "",
          "type": "uint256"
        }
      ],
      "name": "topCandidates",
      "outputs": [
        {
          "internalType": "uint8",
          "name": "",
          "type": "uint8"
        }
      ],
      "stateMutability": "view",
      "type": "function"
    },
    {
      "inputs": [
        {
          "internalType": "address",
          "name": "newOwner",
          "type": "address"
        }
      ],
      "name": "transferOwnership",
      "outputs": [],
      "stateMutability": "nonpayable",
      "type": "function"
    },
    {
      "inputs": [
        {
          "internalType": "uint8",
          "name": "candidate",
          "type": "uint8"
        },
        {
          "internalType": "uint256",
          "name": "value",
          "type": "uint256"
        }
      ],
      "name": "vote",
      "outputs": [
        {
          "internalType": "bool",
          "name": "",
          "type": "bool"
        }
      ],
      "stateMutability": "nonpayable",
      "type": "function"
    },
    {
      "inputs": [
        {
          "internalType": "address",
          "name": "",
          "type": "address"
        }
      ],
      "name": "voted",
      "outputs": [
        {
          "internalType": "bool",
          "name": "",
          "type": "bool"
        }
      ],
      "stateMutability": "view",
      "type": "function"
    },
    {
      "inputs": [
        {
          "internalType": "address",
          "name": "",
          "type": "address"
        }
      ],
      "name": "voters",
      "outputs": [
        {
          "internalType": "bool",
          "name": "",
          "type": "bool"
        }
      ],
      "stateMutability": "view",
      "type": "function"
    },
    {
      "inputs": [
        {
          "internalType": "uint256",
          "name": "",
          "type": "uint256"
        }
      ],
      "name": "votes",
      "outputs": [
        {
          "internalType": "uint256",
          "name": "",
          "type": "uint256"
        }
      ],
      "stateMutability": "view",
      "type": "function"
    },
    {
      "inputs": [],
      "name": "votingStatus",
      "outputs": [
        {
          "internalType": "bool",
          "name": "",
          "type": "bool"
        }
      ],
      "stateMutability": "view",
      "type": "function"
    },
    {
      "inputs": [],
      "name": "winningCandidates",
      "outputs": [
        {
          "internalType": "uint8[3]",
          "name": "",
          "type": "uint8[3]"
        }
      ],
      "stateMutability": "view",
      "type": "function"
    },
    {
      "inputs": [],
      "name": "wknd",
      "outputs": [
        {
          "internalType": "contract IERC20",
          "name": "",
          "type": "address"
        }
      ],
      "stateMutability": "view",
      "type": "function"
    }
  ],
  "bytecode": "0x60806040523480156200001157600080fd5b5060405162001e9538038062001e958339818101604052810190620000379190620001e9565b620000576200004b6200009f60201b60201c565b620000a760201b60201c565b80600f60006101000a81548173ffffffffffffffffffffffffffffffffffffffff021916908373ffffffffffffffffffffffffffffffffffffffff160217905550506200021b565b600033905090565b60008060009054906101000a900473ffffffffffffffffffffffffffffffffffffffff169050816000806101000a81548173ffffffffffffffffffffffffffffffffffffffff021916908373ffffffffffffffffffffffffffffffffffffffff1602179055508173ffffffffffffffffffffffffffffffffffffffff168173ffffffffffffffffffffffffffffffffffffffff167f8be0079c531659141344cd1fd0a4f28419497f9722a3daafe3b4186f6b6457e060405160405180910390a35050565b600080fd5b600073ffffffffffffffffffffffffffffffffffffffff82169050919050565b60006200019d8262000170565b9050919050565b6000620001b18262000190565b9050919050565b620001c381620001a4565b8114620001cf57600080fd5b50565b600081519050620001e381620001b8565b92915050565b6000602082840312156200020257620002016200016b565b5b60006200021284828501620001d2565b91505092915050565b611c6a806200022b6000396000f3fe608060405234801561001057600080fd5b50600436106100ea5760003560e01c80637478c9fe1161008c578063a3ec138d11610066578063a3ec138d1461023d578063aec2ccae1461026d578063d3f29ace1461029d578063f2fde38b146102cd576100ea565b80637478c9fe146101d157806383d7558a146102015780638da5cb5b1461021f576100ea565b8063317b6628116100c8578063317b662814610149578063377968d4146101795780635df8133014610197578063715018a6146101c7576100ea565b806312f083b5146100ef57806319f41a401461010d5780631aa3a0081461012b575b600080fd5b6100f76102e9565b6040516101049190611258565b60405180910390f35b61011561030f565b604051610122919061128e565b60405180910390f35b610133610322565b604051610140919061128e565b60405180910390f35b610163600480360381019061015e91906112e4565b6104e9565b604051610170919061132d565b60405180910390f35b610181610513565b60405161018e91906113f3565b60405180910390f35b6101b160048036038101906101ac91906112e4565b610584565b6040516101be919061141d565b60405180910390f35b6101cf61059f565b005b6101eb60048036038101906101e69190611464565b6105b3565b6040516101f8919061128e565b60405180910390f35b6102096105e0565b604051610216919061153c565b60405180910390f35b610227610659565b6040516102349190611579565b60405180910390f35b610257600480360381019061025291906115c0565b610682565b604051610264919061128e565b60405180910390f35b610287600480360381019061028291906115c0565b6106a2565b604051610294919061128e565b60405180910390f35b6102b760048036038101906102b29190611619565b6106c2565b6040516102c4919061128e565b60405180910390f35b6102e760048036038101906102e291906115c0565b610abd565b005b600f60009054906101000a900473ffffffffffffffffffffffffffffffffffffffff1681565b600f60149054906101000a900460ff1681565b6000600c60003373ffffffffffffffffffffffffffffffffffffffff1673ffffffffffffffffffffffffffffffffffffffff16815260200190815260200160002060009054906101000a900460ff16156103b1576040517f08c379a00000000000000000000000000000000000000000000000000000000081526004016103a8906116b6565b60405180910390fd5b6001600c60003373ffffffffffffffffffffffffffffffffffffffff1673ffffffffffffffffffffffffffffffffffffffff16815260200190815260200160002060006101000a81548160ff021916908315150217905550600f60009054906101000a900473ffffffffffffffffffffffffffffffffffffffff1673ffffffffffffffffffffffffffffffffffffffff1663a9059cbb3360016040518363ffffffff1660e01b8152600401610467929190611711565b6020604051808303816000875af1158015610486573d6000803e3d6000fd5b505050506040513d601f19601f820116820180604052508101906104aa919061174f565b507fb6be2187d059cc2a55fe29e0e503b566e1e0f8c8780096e185429350acffd3dd336040516104da9190611579565b60405180910390a16001905090565b600e81600381106104f957600080fd5b60209182820401919006915054906101000a900460ff1681565b61051b6110dd565b600e60038060200260405190810160405280929190826003801561057a576020028201916000905b82829054906101000a900460ff1660ff16815260200190600101906020826000010492830192600103820291508084116105435790505b5050505050905090565b600181600b811061059457600080fd5b016000915090505481565b6105a7610b40565b6105b16000610bbe565b565b60006105bd610b40565b81600f60146101000a81548160ff02191690831515021790555060019050919050565b6105e86110ff565b6105f06110ff565b6000600190505b600b81101561065157600181600b81106106145761061361177c565b5b01548260018361062491906117da565b600a81106106355761063461177c565b5b60200201818152505080806106499061180e565b9150506105f7565b508091505090565b60008060009054906101000a900473ffffffffffffffffffffffffffffffffffffffff16905090565b600c6020528060005260406000206000915054906101000a900460ff1681565b600d6020528060005260406000206000915054906101000a900460ff1681565b6000600f60149054906101000a900460ff16610713576040517f08c379a000000000000000000000000000000000000000000000000000000000815260040161070a906118a2565b60405180910390fd5b33600c60008273ffffffffffffffffffffffffffffffffffffffff1673ffffffffffffffffffffffffffffffffffffffff16815260200190815260200160002060009054906101000a900460ff166107a0576040517f08c379a00000000000000000000000000000000000000000000000000000000081526004016107979061190e565b60405180910390fd5b83600c8160ff161080156107b7575060008160ff16115b6107f6576040517f08c379a00000000000000000000000000000000000000000000000000000000081526004016107ed9061197a565b60405180910390fd5b60008411610839576040517f08c379a0000000000000000000000000000000000000000000000000000000008152600401610830906119e6565b60405180910390fd5b600d60003373ffffffffffffffffffffffffffffffffffffffff1673ffffffffffffffffffffffffffffffffffffffff16815260200190815260200160002060009054906101000a900460ff16156108c6576040517f08c379a00000000000000000000000000000000000000000000000000000000081526004016108bd90611a52565b60405180910390fd5b60006108d186610c82565b9050600f60009054906101000a900473ffffffffffffffffffffffffffffffffffffffff1673ffffffffffffffffffffffffffffffffffffffff166323b872dd3330886040518463ffffffff1660e01b815260040161093293929190611a72565b6020604051808303816000875af1158015610951573d6000803e3d6000fd5b505050506040513d601f19601f82011682018060405250810190610975919061174f565b508460018760ff16600b811061098e5761098d61177c565b5b01600082825461099e9190611aa9565b925050819055506001600d60003373ffffffffffffffffffffffffffffffffffffffff1673ffffffffffffffffffffffffffffffffffffffff16815260200190815260200160002060006101000a81548160ff0219169083151502179055507f78d96294d2cf18d8e22a8ad08170a97b7b0fbb5679ae831255aed8508c124ac9338787604051610a3093929190611aff565b60405180910390a1610a5a8660018860ff16600b8110610a5357610a5261177c565b5b0154610cf1565b6000610a6587610c82565b905081158015610a725750805b15610aaf577f9977920664847e18e55e52723e43c9c52eec028b5fa912e4eef38798fe7b196987604051610aa6919061132d565b60405180910390a15b600194505050505092915050565b610ac5610b40565b600073ffffffffffffffffffffffffffffffffffffffff168173ffffffffffffffffffffffffffffffffffffffff1603610b34576040517f08c379a0000000000000000000000000000000000000000000000000000000008152600401610b2b90611ba8565b60405180910390fd5b610b3d81610bbe565b50565b610b486110d5565b73ffffffffffffffffffffffffffffffffffffffff16610b66610659565b73ffffffffffffffffffffffffffffffffffffffff1614610bbc576040517f08c379a0000000000000000000000000000000000000000000000000000000008152600401610bb390611c14565b60405180910390fd5b565b60008060009054906101000a900473ffffffffffffffffffffffffffffffffffffffff169050816000806101000a81548173ffffffffffffffffffffffffffffffffffffffff021916908373ffffffffffffffffffffffffffffffffffffffff1602179055508173ffffffffffffffffffffffffffffffffffffffff168173ffffffffffffffffffffffffffffffffffffffff167f8be0079c531659141344cd1fd0a4f28419497f9722a3daafe3b4186f6b6457e060405160405180910390a35050565b600080600090505b6003811015610ce6578260ff16600e8260038110610cab57610caa61177c565b5b602091828204019190069054906101000a900460ff1660ff1603610cd3576001915050610cec565b8080610cde9061180e565b915050610c8a565b50600090505b919050565b6000600e600380602002604051908101604052809291908260038015610d52576020028201916000905b82829054906101000a900460ff1660ff1681526020019060010190602082600001049283019260010382029150808411610d1b5790505b50505050509050600181600060038110610d6f57610d6e61177c565b5b602002015160ff16600b8110610d8857610d8761177c565b5b0154821115610ee85780600060038110610da557610da461177c565b5b602002015160ff168360ff1603610dbc57506110d1565b80600160038110610dd057610dcf61177c565b5b602002015160ff168360ff1603610e465780600060038110610df557610df461177c565b5b60200201518382600160038110610e0f57610e0e61177c565b5b6020020183600060038110610e2757610e2661177c565b5b602002018260ff1660ff168152508260ff1660ff168152505050610ee3565b80600160038110610e5a57610e5961177c565b5b602002015181600060038110610e7357610e7261177c565b5b60200201518483600260038110610e8d57610e8c61177c565b5b6020020184600160038110610ea557610ea461177c565b5b6020020185600060038110610ebd57610ebc61177c565b5b602002018360ff1660ff168152508360ff1660ff168152508360ff1660ff168152505050505b6110bd565b600181600160038110610efe57610efd61177c565b5b602002015160ff16600b8110610f1757610f1661177c565b5b0154821115610fdb5780600060038110610f3457610f3361177c565b5b602002015160ff168360ff1603610f4b57506110d1565b80600160038110610f5f57610f5e61177c565b5b602002015160ff168360ff1603610f7657506110d1565b80600160038110610f8a57610f8961177c565b5b60200201518382600260038110610fa457610fa361177c565b5b6020020183600160038110610fbc57610fbb61177c565b5b602002018260ff1660ff168152508260ff1660ff1681525050506110bc565b600181600260038110610ff157610ff061177c565b5b602002015160ff16600b811061100a5761100961177c565b5b01548211156110bb57806000600381106110275761102661177c565b5b602002015160ff168360ff160361103e57506110d1565b806001600381106110525761105161177c565b5b602002015160ff168360ff160361106957506110d1565b8060026003811061107d5761107c61177c565b5b602002015160ff168360ff160361109457506110d1565b82816002600381106110a9576110a861177c565b5b602002019060ff16908160ff16815250505b5b5b80600e9060036110ce929190611122565b50505b5050565b600033905090565b6040518060600160405280600390602082028036833780820191505090505090565b604051806101400160405280600a90602082028036833780820191505090505090565b826003601f016020900481019282156111ab5791602002820160005b8382111561117c57835183826101000a81548160ff021916908360ff160217905550926020019260010160208160000104928301926001030261113e565b80156111a95782816101000a81549060ff021916905560010160208160000104928301926001030261117c565b505b5090506111b891906111bc565b5090565b5b808211156111d55760008160009055506001016111bd565b5090565b600073ffffffffffffffffffffffffffffffffffffffff82169050919050565b6000819050919050565b600061121e611219611214846111d9565b6111f9565b6111d9565b9050919050565b600061123082611203565b9050919050565b600061124282611225565b9050919050565b61125281611237565b82525050565b600060208201905061126d6000830184611249565b92915050565b60008115159050919050565b61128881611273565b82525050565b60006020820190506112a3600083018461127f565b92915050565b600080fd5b6000819050919050565b6112c1816112ae565b81146112cc57600080fd5b50565b6000813590506112de816112b8565b92915050565b6000602082840312156112fa576112f96112a9565b5b6000611308848285016112cf565b91505092915050565b600060ff82169050919050565b61132781611311565b82525050565b6000602082019050611342600083018461131e565b92915050565b600060039050919050565b600081905092915050565b6000819050919050565b61137181611311565b82525050565b60006113838383611368565b60208301905092915050565b6000602082019050919050565b6113a581611348565b6113af8184611353565b92506113ba8261135e565b8060005b838110156113eb5781516113d28782611377565b96506113dd8361138f565b9250506001810190506113be565b505050505050565b6000606082019050611408600083018461139c565b92915050565b611417816112ae565b82525050565b6000602082019050611432600083018461140e565b92915050565b61144181611273565b811461144c57600080fd5b50565b60008135905061145e81611438565b92915050565b60006020828403121561147a576114796112a9565b5b60006114888482850161144f565b91505092915050565b6000600a9050919050565b600081905092915050565b6000819050919050565b6114ba816112ae565b82525050565b60006114cc83836114b1565b60208301905092915050565b6000602082019050919050565b6114ee81611491565b6114f8818461149c565b9250611503826114a7565b8060005b8381101561153457815161151b87826114c0565b9650611526836114d8565b925050600181019050611507565b505050505050565b60006101408201905061155260008301846114e5565b92915050565b6000611563826111d9565b9050919050565b61157381611558565b82525050565b600060208201905061158e600083018461156a565b92915050565b61159d81611558565b81146115a857600080fd5b50565b6000813590506115ba81611594565b92915050565b6000602082840312156115d6576115d56112a9565b5b60006115e4848285016115ab565b91505092915050565b6115f681611311565b811461160157600080fd5b50565b600081359050611613816115ed565b92915050565b600080604083850312156116305761162f6112a9565b5b600061163e85828601611604565b925050602061164f858286016112cf565b9150509250929050565b600082825260208201905092915050565b7f416c726561647920726567697374657265640000000000000000000000000000600082015250565b60006116a0601283611659565b91506116ab8261166a565b602082019050919050565b600060208201905081810360008301526116cf81611693565b9050919050565b6000819050919050565b60006116fb6116f66116f1846116d6565b6111f9565b6112ae565b9050919050565b61170b816116e0565b82525050565b6000604082019050611726600083018561156a565b6117336020830184611702565b9392505050565b60008151905061174981611438565b92915050565b600060208284031215611765576117646112a9565b5b60006117738482850161173a565b91505092915050565b7f4e487b7100000000000000000000000000000000000000000000000000000000600052603260045260246000fd5b7f4e487b7100000000000000000000000000000000000000000000000000000000600052601160045260246000fd5b60006117e5826112ae565b91506117f0836112ae565b925082821015611803576118026117ab565b5b828203905092915050565b6000611819826112ae565b91507fffffffffffffffffffffffffffffffffffffffffffffffffffffffffffffffff820361184b5761184a6117ab565b5b600182019050919050565b7f566f74696e672070617573656400000000000000000000000000000000000000600082015250565b600061188c600d83611659565b915061189782611856565b602082019050919050565b600060208201905081810360008301526118bb8161187f565b9050919050565b7f566f746572206e6f742072656769737465726564000000000000000000000000600082015250565b60006118f8601483611659565b9150611903826118c2565b602082019050919050565b60006020820190508181036000830152611927816118eb565b9050919050565b7f496e76616c69642063616e646964617465000000000000000000000000000000600082015250565b6000611964601183611659565b915061196f8261192e565b602082019050919050565b6000602082019050818103600083015261199381611957565b9050919050565b7f3020574b4e4420746f6b656e732070726f766964656400000000000000000000600082015250565b60006119d0601683611659565b91506119db8261199a565b602082019050919050565b600060208201905081810360008301526119ff816119c3565b9050919050565b7f416c726561647920766f74656400000000000000000000000000000000000000600082015250565b6000611a3c600d83611659565b9150611a4782611a06565b602082019050919050565b60006020820190508181036000830152611a6b81611a2f565b9050919050565b6000606082019050611a87600083018661156a565b611a94602083018561156a565b611aa1604083018461140e565b949350505050565b6000611ab4826112ae565b9150611abf836112ae565b9250827fffffffffffffffffffffffffffffffffffffffffffffffffffffffffffffffff03821115611af457611af36117ab565b5b828201905092915050565b6000606082019050611b14600083018661156a565b611b21602083018561131e565b611b2e604083018461140e565b949350505050565b7f4f776e61626c653a206e6577206f776e657220697320746865207a65726f206160008201527f6464726573730000000000000000000000000000000000000000000000000000602082015250565b6000611b92602683611659565b9150611b9d82611b36565b604082019050919050565b60006020820190508181036000830152611bc181611b85565b9050919050565b7f4f776e61626c653a2063616c6c6572206973206e6f7420746865206f776e6572600082015250565b6000611bfe602083611659565b9150611c0982611bc8565b602082019050919050565b60006020820190508181036000830152611c2d81611bf1565b905091905056fea264697066735822122049f1b1e037b3fe56378e72ac6016db08b048f22057b7af65e2c555cda09bc35b64736f6c634300080f0033",
  "linkReferences": {},
  "deployedLinkReferences": {}
}